{
  "contractName": "AuctchainHouse",
  "abi": [
    {
      "constant": true,
      "inputs": [
        {
          "name": "",
          "type": "uint256"
        }
      ],
      "name": "auctions",
      "outputs": [
        {
          "name": "seller",
          "type": "address"
        },
        {
          "name": "title",
          "type": "string"
        },
        {
          "name": "description",
          "type": "string"
        },
        {
          "name": "link",
          "type": "string"
        },
        {
          "name": "blockNumberOfDeadline",
          "type": "uint256"
        },
        {
          "name": "status",
          "type": "uint8"
        },
        {
          "name": "startingPrice",
          "type": "uint256"
        },
        {
          "name": "currentBid",
          "type": "uint256"
        }
      ],
      "payable": false,
      "stateMutability": "view",
      "type": "function"
    },
    {
      "constant": true,
      "inputs": [
        {
          "name": "",
          "type": "address"
        }
      ],
      "name": "History",
      "outputs": [
        {
          "name": "bidder",
          "type": "address"
        },
        {
          "name": "amount",
          "type": "uint256"
        },
        {
          "name": "timestamp",
          "type": "uint256"
        }
      ],
      "payable": false,
      "stateMutability": "view",
      "type": "function"
    },
    {
      "constant": true,
      "inputs": [
        {
          "name": "",
          "type": "address"
        },
        {
          "name": "",
          "type": "uint256"
        }
      ],
      "name": "auctionsBidOnByUser",
      "outputs": [
        {
          "name": "",
          "type": "uint256"
        }
      ],
      "payable": false,
      "stateMutability": "view",
      "type": "function"
    },
    {
      "constant": true,
      "inputs": [
        {
          "name": "",
          "type": "address"
        },
        {
          "name": "",
          "type": "uint256"
        }
      ],
      "name": "auctionsRunByUser",
      "outputs": [
        {
          "name": "",
          "type": "uint256"
        }
      ],
      "payable": false,
      "stateMutability": "view",
      "type": "function"
    },
    {
      "anonymous": false,
      "inputs": [
        {
          "indexed": false,
          "name": "name",
          "type": "string"
        },
        {
          "indexed": false,
          "name": "email",
          "type": "string"
        },
        {
          "indexed": false,
          "name": "contact",
          "type": "string"
        }
      ],
      "name": "AccountRegistered",
      "type": "event"
    },
    {
      "anonymous": false,
      "inputs": [
        {
          "indexed": false,
          "name": "id",
          "type": "uint256"
        },
        {
          "indexed": false,
          "name": "title",
          "type": "string"
        },
        {
          "indexed": false,
          "name": "startingPrice",
          "type": "uint256"
        }
      ],
      "name": "AuctionCreated",
      "type": "event"
    },
    {
      "anonymous": false,
      "inputs": [
        {
          "indexed": false,
          "name": "auctionId",
          "type": "uint256"
        },
        {
          "indexed": false,
          "name": "bidder",
          "type": "address"
        },
        {
          "indexed": false,
          "name": "amount",
          "type": "uint256"
        }
      ],
      "name": "BidPlaced",
      "type": "event"
    },
    {
      "anonymous": false,
      "inputs": [
        {
          "indexed": false,
          "name": "auctionId",
          "type": "uint256"
        },
        {
          "indexed": false,
          "name": "winningBidder",
          "type": "address"
        },
        {
          "indexed": false,
          "name": "amount",
          "type": "uint256"
        }
      ],
      "name": "AuctionEndedWithWinner",
      "type": "event"
    },
    {
      "anonymous": false,
      "inputs": [
        {
          "indexed": false,
          "name": "auctionId",
          "type": "uint256"
        },
        {
          "indexed": false,
          "name": "topBid",
          "type": "uint256"
        },
        {
          "indexed": false,
          "name": "reservePrice",
          "type": "uint256"
        }
      ],
      "name": "AuctionEndedWithoutWinner",
      "type": "event"
    },
    {
      "constant": false,
      "inputs": [
        {
          "name": "_name",
          "type": "string"
        },
        {
          "name": "_email",
          "type": "string"
        },
        {
          "name": "_contact",
          "type": "string"
        }
      ],
      "name": "register",
      "outputs": [],
      "payable": false,
      "stateMutability": "nonpayable",
      "type": "function"
    },
    {
      "constant": true,
      "inputs": [
        {
          "name": "addr",
          "type": "address"
        }
      ],
      "name": "isRegistered",
      "outputs": [
        {
          "name": "",
          "type": "bool"
        }
      ],
      "payable": false,
      "stateMutability": "view",
      "type": "function"
    },
    {
      "constant": true,
      "inputs": [
        {
          "name": "addr",
          "type": "address"
        }
      ],
      "name": "getRegisteredData",
      "outputs": [
        {
          "name": "",
          "type": "string"
        },
        {
          "name": "",
          "type": "string"
        },
        {
          "name": "",
          "type": "string"
        }
      ],
      "payable": false,
      "stateMutability": "view",
      "type": "function"
    },
    {
      "constant": false,
      "inputs": [
        {
          "name": "_title",
          "type": "string"
        },
        {
          "name": "_description",
          "type": "string"
        },
        {
          "name": "_link",
          "type": "string"
        },
        {
          "name": "_deadline",
          "type": "uint256"
        },
        {
          "name": "_startingPrice",
          "type": "uint256"
        }
      ],
      "name": "createAuction",
      "outputs": [
        {
          "name": "auctionId",
          "type": "uint256"
        }
      ],
      "payable": false,
      "stateMutability": "nonpayable",
      "type": "function"
    },
    {
      "constant": true,
      "inputs": [
        {
          "name": "idx",
          "type": "uint256"
        }
      ],
      "name": "getAuction",
      "outputs": [
        {
          "name": "",
          "type": "address"
        },
        {
          "name": "",
          "type": "string"
        },
        {
          "name": "",
          "type": "string"
        },
        {
          "name": "",
          "type": "string"
        },
        {
          "name": "",
          "type": "uint256"
        },
        {
          "name": "",
          "type": "uint256"
        },
        {
          "name": "",
          "type": "uint256"
        }
      ],
      "payable": false,
      "stateMutability": "view",
      "type": "function"
    },
    {
      "constant": true,
      "inputs": [],
      "name": "getAuctionCount",
      "outputs": [
        {
          "name": "",
          "type": "uint256"
        }
      ],
      "payable": false,
      "stateMutability": "view",
      "type": "function"
    },
    {
      "constant": true,
      "inputs": [
        {
          "name": "idx",
          "type": "uint256"
        }
      ],
      "name": "getStatus",
      "outputs": [
        {
          "name": "",
          "type": "uint256"
        }
      ],
      "payable": false,
      "stateMutability": "view",
      "type": "function"
    },
    {
      "constant": true,
      "inputs": [
        {
          "name": "addr",
          "type": "address"
        }
      ],
      "name": "getAuctionsCountForUser",
      "outputs": [
        {
          "name": "",
          "type": "uint256"
        }
      ],
      "payable": false,
      "stateMutability": "view",
      "type": "function"
    },
    {
      "constant": true,
      "inputs": [
        {
          "name": "addr",
          "type": "address"
        },
        {
          "name": "idx",
          "type": "uint256"
        }
      ],
      "name": "getAuctionIdForUserAndIdx",
      "outputs": [
        {
          "name": "",
          "type": "uint256"
        }
      ],
      "payable": false,
      "stateMutability": "view",
      "type": "function"
    },
    {
      "constant": true,
      "inputs": [
        {
          "name": "auctionId",
          "type": "uint256"
        }
      ],
      "name": "getBidCountForAuction",
      "outputs": [
        {
          "name": "",
          "type": "uint256"
        }
      ],
      "payable": false,
      "stateMutability": "view",
      "type": "function"
    },
    {
      "constant": true,
      "inputs": [
        {
          "name": "auctionId",
          "type": "uint256"
        },
        {
          "name": "idx",
          "type": "uint256"
        }
      ],
      "name": "getBidForAuctionByIdx",
      "outputs": [
        {
          "name": "bidder",
          "type": "address"
        },
        {
          "name": "amount",
          "type": "uint256"
        },
        {
          "name": "timestamp",
          "type": "uint256"
        }
      ],
      "payable": false,
      "stateMutability": "view",
      "type": "function"
    },
    {
      "constant": false,
      "inputs": [
        {
          "name": "auctionId",
          "type": "uint256"
        }
      ],
      "name": "placeBid",
      "outputs": [
        {
          "name": "success",
          "type": "bool"
        }
      ],
      "payable": true,
      "stateMutability": "payable",
      "type": "function"
    },
    {
      "constant": true,
      "inputs": [],
      "name": "getRefundValue",
      "outputs": [
        {
          "name": "",
          "type": "uint256"
        }
      ],
      "payable": false,
      "stateMutability": "view",
      "type": "function"
    },
    {
      "constant": false,
      "inputs": [],
      "name": "withdrawRefund",
      "outputs": [
        {
          "name": "",
          "type": "bool"
        }
      ],
      "payable": false,
      "stateMutability": "nonpayable",
      "type": "function"
    },
    {
      "constant": false,
      "inputs": [
        {
          "name": "auctionId",
          "type": "uint256"
        }
      ],
      "name": "endAuction",
      "outputs": [
        {
          "name": "success",
          "type": "bool"
        }
      ],
      "payable": false,
      "stateMutability": "nonpayable",
      "type": "function"
    },
    {
      "constant": true,
      "inputs": [
        {
          "name": "year",
          "type": "uint16"
        }
      ],
      "name": "isLeapYear",
      "outputs": [
        {
          "name": "",
          "type": "bool"
        }
      ],
      "payable": false,
      "stateMutability": "pure",
      "type": "function"
    },
    {
      "constant": true,
      "inputs": [
        {
          "name": "year",
          "type": "uint256"
        }
      ],
      "name": "leapYearsBefore",
      "outputs": [
        {
          "name": "",
          "type": "uint256"
        }
      ],
      "payable": false,
      "stateMutability": "pure",
      "type": "function"
    },
    {
      "constant": true,
      "inputs": [
        {
          "name": "month",
          "type": "uint8"
        },
        {
          "name": "year",
          "type": "uint16"
        }
      ],
      "name": "getDaysInMonth",
      "outputs": [
        {
          "name": "",
          "type": "uint8"
        }
      ],
      "payable": false,
      "stateMutability": "pure",
      "type": "function"
    },
    {
      "constant": true,
      "inputs": [
        {
          "name": "timestamp",
          "type": "uint256"
        }
      ],
      "name": "getYear",
      "outputs": [
        {
          "name": "",
          "type": "uint16"
        }
      ],
      "payable": false,
      "stateMutability": "pure",
      "type": "function"
    },
    {
      "constant": true,
      "inputs": [
        {
          "name": "timestamp",
          "type": "uint256"
        }
      ],
      "name": "getMonth",
      "outputs": [
        {
          "name": "",
          "type": "uint8"
        }
      ],
      "payable": false,
      "stateMutability": "pure",
      "type": "function"
    },
    {
      "constant": true,
      "inputs": [
        {
          "name": "timestamp",
          "type": "uint256"
        }
      ],
      "name": "getDay",
      "outputs": [
        {
          "name": "",
          "type": "uint8"
        }
      ],
      "payable": false,
      "stateMutability": "pure",
      "type": "function"
    },
    {
      "constant": true,
      "inputs": [
        {
          "name": "timestamp",
          "type": "uint256"
        }
      ],
      "name": "getHour",
      "outputs": [
        {
          "name": "",
          "type": "uint8"
        }
      ],
      "payable": false,
      "stateMutability": "pure",
      "type": "function"
    },
    {
      "constant": true,
      "inputs": [
        {
          "name": "timestamp",
          "type": "uint256"
        }
      ],
      "name": "getMinute",
      "outputs": [
        {
          "name": "",
          "type": "uint8"
        }
      ],
      "payable": false,
      "stateMutability": "pure",
      "type": "function"
    },
    {
      "constant": true,
      "inputs": [
        {
          "name": "timestamp",
          "type": "uint256"
        }
      ],
      "name": "getSecond",
      "outputs": [
        {
          "name": "",
          "type": "uint8"
        }
      ],
      "payable": false,
      "stateMutability": "pure",
      "type": "function"
    },
    {
      "constant": true,
      "inputs": [
        {
          "name": "timestamp",
          "type": "uint256"
        }
      ],
      "name": "getWeekday",
      "outputs": [
        {
          "name": "",
          "type": "uint8"
        }
      ],
      "payable": false,
      "stateMutability": "pure",
      "type": "function"
    },
    {
      "constant": true,
      "inputs": [
        {
          "name": "year",
          "type": "uint16"
        },
        {
          "name": "month",
          "type": "uint8"
        },
        {
          "name": "day",
          "type": "uint8"
        },
        {
          "name": "hour",
          "type": "uint8"
        },
        {
          "name": "minute",
          "type": "uint8"
        }
      ],
      "name": "toTimestamp",
      "outputs": [
        {
          "name": "timestamp",
          "type": "uint256"
        }
      ],
      "payable": false,
      "stateMutability": "pure",
      "type": "function"
    },
    {
      "constant": true,
      "inputs": [
        {
          "name": "year",
          "type": "uint16"
        },
        {
          "name": "month",
          "type": "uint8"
        },
        {
          "name": "day",
          "type": "uint8"
        },
        {
          "name": "hour",
          "type": "uint8"
        }
      ],
      "name": "toTimestamp",
      "outputs": [
        {
          "name": "timestamp",
          "type": "uint256"
        }
      ],
      "payable": false,
      "stateMutability": "pure",
      "type": "function"
    },
    {
      "constant": true,
      "inputs": [
        {
          "name": "year",
          "type": "uint16"
        },
        {
          "name": "month",
          "type": "uint8"
        },
        {
          "name": "day",
          "type": "uint8"
        }
      ],
      "name": "toTimestamp",
      "outputs": [
        {
          "name": "timestamp",
          "type": "uint256"
        }
      ],
      "payable": false,
      "stateMutability": "pure",
      "type": "function"
    },
    {
      "constant": true,
      "inputs": [
        {
          "name": "year",
          "type": "uint16"
        },
        {
          "name": "month",
          "type": "uint8"
        },
        {
          "name": "day",
          "type": "uint8"
        },
        {
          "name": "hour",
          "type": "uint8"
        },
        {
          "name": "minute",
          "type": "uint8"
        },
        {
          "name": "second",
          "type": "uint8"
        }
      ],
      "name": "toTimestamp",
      "outputs": [
        {
          "name": "timestamp",
          "type": "uint256"
        }
      ],
      "payable": false,
      "stateMutability": "pure",
      "type": "function"
    }
  ],
  "bytecode": "0x608060405234801561001057600080fd5b506132fb806100206000396000f3006080604052600436106101a1576000357c0100000000000000000000000000000000000000000000000000000000900463ffffffff168063110f8874146101a65780631313c739146101d557806324a12edf1461025a5780633e239e1a146102bb5780634ac1ad78146103025780634bc32ea2146103495780634cd08d031461038a578063571a26a01461047f57806358574dca1461065a57806359e54095146107775780635c622a0e146107a257806362ba9687146107e357806365c728401461085c5780636f959d13146108a357806378bd7935146109345780637d176e3f14610afa5780637f79183314610c8e57806388c93e2214610cfa5780638aa001fc14610d5b5780638c8d98a014610da25780639054bdec14610e0157806392d6631314610e875780639979ef4514610ed05780639abb2c1614610f085780639ecbab2314610f5f578063a324ad2414610fc0578063a6f0e57714611007578063b199993714611050578063b238ad0e14611091578063b9a2de3a146110e9578063c3c5a5471461112e578063c44e664014611189578063fa93f883146111b4575b600080fd5b3480156101b257600080fd5b506101bb6111fb565b604051808215151515815260200191505060405180910390f35b3480156101e157600080fd5b5061020a60048036038101908080359060200190929190803590602001909291905050506112d0565b604051808473ffffffffffffffffffffffffffffffffffffffff1673ffffffffffffffffffffffffffffffffffffffff168152602001838152602001828152602001935050505060405180910390f35b34801561026657600080fd5b506102a5600480360381019080803573ffffffffffffffffffffffffffffffffffffffff1690602001909291908035906020019092919050505061136e565b6040518082815260200191505060405180910390f35b3480156102c757600080fd5b506102e6600480360381019080803590602001909291905050506113cf565b604051808260ff1660ff16815260200191505060405180910390f35b34801561030e57600080fd5b5061032d600480360381019080803590602001909291905050506113fc565b604051808260ff1660ff16815260200191505060405180910390f35b34801561035557600080fd5b5061037460048036038101908080359060200190929190505050611423565b6040518082815260200191505060405180910390f35b34801561039657600080fd5b5061047d600480360381019080803590602001908201803590602001908080601f0160208091040260200160405190810160405280939291908181526020018383808284378201915050505050509192919290803590602001908201803590602001908080601f0160208091040260200160405190810160405280939291908181526020018383808284378201915050505050509192919290803590602001908201803590602001908080601f0160208091040260200160405190810160405280939291908181526020018383808284378201915050505050509192919290505050611455565b005b34801561048b57600080fd5b506104aa600480360381019080803590602001909291905050506116ae565b604051808973ffffffffffffffffffffffffffffffffffffffff1673ffffffffffffffffffffffffffffffffffffffff1681526020018060200180602001806020018881526020018760028111156104fe57fe5b60ff16815260200186815260200185815260200184810384528b818151815260200191508051906020019080838360005b8381101561054a57808201518184015260208101905061052f565b50505050905090810190601f1680156105775780820380516001836020036101000a031916815260200191505b5084810383528a818151815260200191508051906020019080838360005b838110156105b0578082015181840152602081019050610595565b50505050905090810190601f1680156105dd5780820380516001836020036101000a031916815260200191505b50848103825289818151815260200191508051906020019080838360005b838110156106165780820151818401526020810190506105fb565b50505050905090810190601f1680156106435780820380516001836020036101000a031916815260200191505b509b50505050505050505050505060405180910390f35b34801561066657600080fd5b50610761600480360381019080803590602001908201803590602001908080601f0160208091040260200160405190810160405280939291908181526020018383808284378201915050505050509192919290803590602001908201803590602001908080601f0160208091040260200160405190810160405280939291908181526020018383808284378201915050505050509192919290803590602001908201803590602001908080601f016020809104026020016040519081016040528093929190818152602001838380828437820191505050505050919291929080359060200190929190803590602001909291905050506118fa565b6040518082815260200191505060405180910390f35b34801561078357600080fd5b5061078c611bc3565b6040518082815260200191505060405180910390f35b3480156107ae57600080fd5b506107cd60048036038101908080359060200190929190505050611c0a565b6040518082815260200191505060405180910390f35b3480156107ef57600080fd5b50610846600480360381019080803561ffff169060200190929190803560ff169060200190929190803560ff169060200190929190803560ff169060200190929190803560ff169060200190929190505050611c51565b6040518082815260200191505060405180910390f35b34801561086857600080fd5b5061088760048036038101908080359060200190929190505050611c6d565b604051808260ff1660ff16815260200191505060405180910390f35b3480156108af57600080fd5b506108e4600480360381019080803573ffffffffffffffffffffffffffffffffffffffff169060200190929190505050611c83565b604051808473ffffffffffffffffffffffffffffffffffffffff1673ffffffffffffffffffffffffffffffffffffffff168152602001838152602001828152602001935050505060405180910390f35b34801561094057600080fd5b5061095f60048036038101908080359060200190929190505050611ccd565b604051808873ffffffffffffffffffffffffffffffffffffffff1673ffffffffffffffffffffffffffffffffffffffff16815260200180602001806020018060200187815260200186815260200185815260200184810384528a818151815260200191508051906020019080838360005b838110156109eb5780820151818401526020810190506109d0565b50505050905090810190601f168015610a185780820380516001836020036101000a031916815260200191505b50848103835289818151815260200191508051906020019080838360005b83811015610a51578082015181840152602081019050610a36565b50505050905090810190601f168015610a7e5780820380516001836020036101000a031916815260200191505b50848103825288818151815260200191508051906020019080838360005b83811015610ab7578082015181840152602081019050610a9c565b50505050905090810190601f168015610ae45780820380516001836020036101000a031916815260200191505b509a505050505050505050505060405180910390f35b348015610b0657600080fd5b50610b3b600480360381019080803573ffffffffffffffffffffffffffffffffffffffff169060200190929190505050611f2a565b60405180806020018060200180602001848103845287818151815260200191508051906020019080838360005b83811015610b83578082015181840152602081019050610b68565b50505050905090810190601f168015610bb05780820380516001836020036101000a031916815260200191505b50848103835286818151815260200191508051906020019080838360005b83811015610be9578082015181840152602081019050610bce565b50505050905090810190601f168015610c165780820380516001836020036101000a031916815260200191505b50848103825285818151815260200191508051906020019080838360005b83811015610c4f578082015181840152602081019050610c34565b50505050905090810190601f168015610c7c5780820380516001836020036101000a031916815260200191505b50965050505050505060405180910390f35b348015610c9a57600080fd5b50610ce4600480360381019080803561ffff169060200190929190803560ff169060200190929190803560ff169060200190929190803560ff1690602001909291905050506121d6565b6040518082815260200191505060405180910390f35b348015610d0657600080fd5b50610d45600480360381019080803573ffffffffffffffffffffffffffffffffffffffff169060200190929190803590602001909291905050506121f1565b6040518082815260200191505060405180910390f35b348015610d6757600080fd5b50610d8660048036038101908080359060200190929190505050612221565b604051808260ff1660ff16815260200191505060405180910390f35b348015610dae57600080fd5b50610deb600480360381019080803561ffff169060200190929190803560ff169060200190929190803560ff169060200190929190505050612237565b6040518082815260200191505060405180910390f35b348015610e0d57600080fd5b50610e71600480360381019080803561ffff169060200190929190803560ff169060200190929190803560ff169060200190929190803560ff169060200190929190803560ff169060200190929190803560ff169060200190929190505050612252565b6040518082815260200191505060405180910390f35b348015610e9357600080fd5b50610eb2600480360381019080803590602001909291905050506124f9565b604051808261ffff1661ffff16815260200191505060405180910390f35b610eee600480360381019080803590602001909291905050506125a4565b604051808215151515815260200191505060405180910390f35b348015610f1457600080fd5b50610f49600480360381019080803573ffffffffffffffffffffffffffffffffffffffff16906020019092919050505061290b565b6040518082815260200191505060405180910390f35b348015610f6b57600080fd5b50610faa600480360381019080803573ffffffffffffffffffffffffffffffffffffffff16906020019092919080359060200190929190505050612957565b6040518082815260200191505060405180910390f35b348015610fcc57600080fd5b50610feb60048036038101908080359060200190929190505050612987565b604051808260ff1660ff16815260200191505060405180910390f35b34801561101357600080fd5b50611036600480360381019080803561ffff16906020019092919050505061299d565b604051808215151515815260200191505060405180910390f35b34801561105c57600080fd5b5061107b60048036038101908080359060200190929190505050612a1e565b6040518082815260200191505060405180910390f35b34801561109d57600080fd5b506110cd600480360381019080803560ff169060200190929190803561ffff169060200190929190505050612a57565b604051808260ff1660ff16815260200191505060405180910390f35b3480156110f557600080fd5b5061111460048036038101908080359060200190929190505050612b23565b604051808215151515815260200191505060405180910390f35b34801561113a57600080fd5b5061116f600480360381019080803573ffffffffffffffffffffffffffffffffffffffff169060200190929190505050612d33565b604051808215151515815260200191505060405180910390f35b34801561119557600080fd5b5061119e612d8c565b6040518082815260200191505060405180910390f35b3480156111c057600080fd5b506111df60048036038101908080359060200190929190505050612d98565b604051808260ff1660ff16815260200191505060405180910390f35b600080600460003373ffffffffffffffffffffffffffffffffffffffff1673ffffffffffffffffffffffffffffffffffffffff1681526020019081526020016000205490506000600460003373ffffffffffffffffffffffffffffffffffffffff1673ffffffffffffffffffffffffffffffffffffffff168152602001908152602001600020819055503373ffffffffffffffffffffffffffffffffffffffff166108fc829081150290604051600060405180830381858888f193505050501580156112cb573d6000803e3d6000fd5b505090565b600080600080600080878154811015156112e657fe5b906000526020600020906009020191506001826008018054905003861115151561130f57600080fd5b816008018681548110151561132057fe5b906000526020600020906003020190508060000160009054906101000a900473ffffffffffffffffffffffffffffffffffffffff168160010154826002015494509450945050509250925092565b6000600260008473ffffffffffffffffffffffffffffffffffffffff1673ffffffffffffffffffffffffffffffffffffffff168152602001908152602001600020828154811015156113bc57fe5b9060005260206000200154905092915050565b60006018603c80848115156113e057fe5b048115156113ea57fe5b048115156113f457fe5b069050919050565b600060076004620151808481151561141057fe5b040181151561141b57fe5b069050919050565b60008060008381548110151561143557fe5b906000526020600020906009020190508060080180549050915050919050565b60806040519081016040528084815260200183815260200182815260200160011515815250600160003373ffffffffffffffffffffffffffffffffffffffff1673ffffffffffffffffffffffffffffffffffffffff16815260200190815260200160002060008201518160000190805190602001906114d5929190612f5a565b5060208201518160010190805190602001906114f2929190612f5a565b50604082015181600201908051906020019061150f929190612f5a565b5060608201518160030160006101000a81548160ff0219169083151502179055509050507fdc107de4c3c731b352a259c166ef69efecf42c27fd6931856cb10f96ade2dc0583838360405180806020018060200180602001848103845287818151815260200191508051906020019080838360005b8381101561159f578082015181840152602081019050611584565b50505050905090810190601f1680156115cc5780820380516001836020036101000a031916815260200191505b50848103835286818151815260200191508051906020019080838360005b838110156116055780820151818401526020810190506115ea565b50505050905090810190601f1680156116325780820380516001836020036101000a031916815260200191505b50848103825285818151815260200191508051906020019080838360005b8381101561166b578082015181840152602081019050611650565b50505050905090810190601f1680156116985780820380516001836020036101000a031916815260200191505b50965050505050505060405180910390a1505050565b6000818154811015156116bd57fe5b90600052602060002090600902016000915090508060000160009054906101000a900473ffffffffffffffffffffffffffffffffffffffff1690806001018054600181600116156101000203166002900480601f01602080910402602001604051908101604052809291908181526020018280546001816001161561010002031660029004801561178f5780601f106117645761010080835404028352916020019161178f565b820191906000526020600020905b81548152906001019060200180831161177257829003601f168201915b505050505090806002018054600181600116156101000203166002900480601f01602080910402602001604051908101604052809291908181526020018280546001816001161561010002031660029004801561182d5780601f106118025761010080835404028352916020019161182d565b820191906000526020600020905b81548152906001019060200180831161181057829003601f168201915b505050505090806003018054600181600116156101000203166002900480601f0160208091040260200160405190810160405280929190818152602001828054600181600116156101000203166002900480156118cb5780601f106118a0576101008083540402835291602001916118cb565b820191906000526020600020905b8154815290600101906020018083116118ae57829003601f168201915b5050505050908060040154908060050160009054906101000a900460ff16908060060154908060070154905088565b600080600160003373ffffffffffffffffffffffffffffffffffffffff1673ffffffffffffffffffffffffffffffffffffffff16815260200190815260200160002060030160009054906101000a900460ff16151561195857600080fd5b6000805480919060010161196c9190612fda565b915060008281548110151561197d57fe5b90600052602060002090600902019050338160000160006101000a81548173ffffffffffffffffffffffffffffffffffffffff021916908373ffffffffffffffffffffffffffffffffffffffff160217905550868160010190805190602001906119e892919061300c565b5085816002019080519060200190611a0192919061300c565b5084816003019080519060200190611a1a92919061300c565b5083816004018190555060018160050160006101000a81548160ff02191690836002811115611a4557fe5b0217905550828160060181905550828160070181905550600260008260000160009054906101000a900473ffffffffffffffffffffffffffffffffffffffff1673ffffffffffffffffffffffffffffffffffffffff1673ffffffffffffffffffffffffffffffffffffffff1681526020019081526020016000208290806001815401808255809150509060018203906000526020600020016000909192909190915055507f71ec34891b539684f9d6a8e102eaab1a9aebc42e3c7a517ed2a3e911f2695044828260010183600601546040518084815260200180602001838152602001828103825284818154600181600116156101000203166002900481526020019150805460018160011615610100020316600290048015611ba95780601f10611b7e57610100808354040283529160200191611ba9565b820191906000526020600020905b815481529060010190602001808311611b8c57829003601f168201915b505094505050505060405180910390a15095945050505050565b6000600460003373ffffffffffffffffffffffffffffffffffffffff1673ffffffffffffffffffffffffffffffffffffffff16815260200190815260200160002054905090565b600080600083815481101515611c1c57fe5b906000526020600020906009020190508060050160009054906101000a900460ff166002811115611c4957fe5b915050919050565b6000611c6286868686866000612252565b905095945050505050565b6000611c7882612db9565b604001519050919050565b60056020528060005260406000206000915090508060000160009054906101000a900473ffffffffffffffffffffffffffffffffffffffff16908060010154908060020154905083565b60006060806060600080600080600089815481101515611ce957fe5b906000526020600020906009020190508060000160009054906101000a900473ffffffffffffffffffffffffffffffffffffffff16816001018260020183600301846004015485600601548660080180549050858054600181600116156101000203166002900480601f016020809104026020016040519081016040528092919081815260200182805460018160011615610100020316600290048015611dd15780601f10611da657610100808354040283529160200191611dd1565b820191906000526020600020905b815481529060010190602001808311611db457829003601f168201915b50505050509550848054600181600116156101000203166002900480601f016020809104026020016040519081016040528092919081815260200182805460018160011615610100020316600290048015611e6d5780601f10611e4257610100808354040283529160200191611e6d565b820191906000526020600020905b815481529060010190602001808311611e5057829003601f168201915b50505050509450838054600181600116156101000203166002900480601f016020809104026020016040519081016040528092919081815260200182805460018160011615610100020316600290048015611f095780601f10611ede57610100808354040283529160200191611f09565b820191906000526020600020905b815481529060010190602001808311611eec57829003601f168201915b50505050509350975097509750975097509750975050919395979092949650565b6060806060600160008573ffffffffffffffffffffffffffffffffffffffff1673ffffffffffffffffffffffffffffffffffffffff168152602001908152602001600020600001600160008673ffffffffffffffffffffffffffffffffffffffff1673ffffffffffffffffffffffffffffffffffffffff168152602001908152602001600020600101600160008773ffffffffffffffffffffffffffffffffffffffff1673ffffffffffffffffffffffffffffffffffffffff168152602001908152602001600020600201828054600181600116156101000203166002900480601f01602080910402602001604051908101604052809291908181526020018280546001816001161561010002031660029004801561208a5780601f1061205f5761010080835404028352916020019161208a565b820191906000526020600020905b81548152906001019060200180831161206d57829003601f168201915b50505050509250818054600181600116156101000203166002900480601f0160208091040260200160405190810160405280929190818152602001828054600181600116156101000203166002900480156121265780601f106120fb57610100808354040283529160200191612126565b820191906000526020600020905b81548152906001019060200180831161210957829003601f168201915b50505050509150808054600181600116156101000203166002900480601f0160208091040260200160405190810160405280929190818152602001828054600181600116156101000203166002900480156121c25780601f10612197576101008083540402835291602001916121c2565b820191906000526020600020905b8154815290600101906020018083116121a557829003601f168201915b505050505090509250925092509193909250565b60006121e785858585600080612252565b9050949350505050565b60036020528160005260406000208181548110151561220c57fe5b90600052602060002001600091509150505481565b6000603c8281151561222f57fe5b069050919050565b60006122498484846000806000612252565b90509392505050565b60008061225d61308c565b6107b291505b8861ffff168261ffff1610156122a65761227c8261299d565b1561228f576301e2850083019250612299565b6301e13380830192505b8180600101925050612263565b601f816000600c811015156122b757fe5b602002019060ff16908160ff16815250506122d18961299d565b156122fd57601d816001600c811015156122e757fe5b602002019060ff16908160ff1681525050612320565b601c816001600c8110151561230e57fe5b602002019060ff16908160ff16815250505b601f816002600c8110151561233157fe5b602002019060ff16908160ff1681525050601e816003600c8110151561235357fe5b602002019060ff16908160ff1681525050601f816004600c8110151561237557fe5b602002019060ff16908160ff1681525050601e816005600c8110151561239757fe5b602002019060ff16908160ff1681525050601f816006600c811015156123b957fe5b602002019060ff16908160ff1681525050601f816007600c811015156123db57fe5b602002019060ff16908160ff1681525050601e816008600c811015156123fd57fe5b602002019060ff16908160ff1681525050601f816009600c8110151561241f57fe5b602002019060ff16908160ff1681525050601e81600a600c8110151561244157fe5b602002019060ff16908160ff1681525050601f81600b600c8110151561246357fe5b602002019060ff16908160ff1681525050600191505b8760ff168261ffff1610156124bb57806001830361ffff16600c8110151561249d57fe5b602002015160ff166201518002830192508180600101925050612479565b6001870360ff166201518002830192508560ff16610e1002830192508460ff16603c02830192508360ff168301925082925050509695505050505050565b600080600080600092506301e133808581151561251257fe5b046107b261ffff1601915061252c6107b261ffff16612a1e565b6125398361ffff16612a1e565b039050806301e285000283019250806107b2830361ffff16036301e1338002830192505b84831115612599576125716001830361299d565b15612584576301e285008303925061258e565b6301e13380830392505b60018203915061255d565b819350505050919050565b600080600080600080600160003373ffffffffffffffffffffffffffffffffffffffff1673ffffffffffffffffffffffffffffffffffffffff16815260200190815260200160002060030160009054906101000a900460ff16151561260857600080fd5b60008781548110151561261757fe5b906000526020600020906009020194503373ffffffffffffffffffffffffffffffffffffffff168560000160009054906101000a900473ffffffffffffffffffffffffffffffffffffffff1673ffffffffffffffffffffffffffffffffffffffff161415151561268657600080fd5b34935083856007015410151561269b57600080fd5b8460080180548091906001016126b191906130b0565b925084600801838154811015156126c457fe5b90600052602060002090600302019150338260000160006101000a81548173ffffffffffffffffffffffffffffffffffffffff021916908373ffffffffffffffffffffffffffffffffffffffff160217905550838260010181905550428260020181905550838560070181905550600360008360000160009054906101000a900473ffffffffffffffffffffffffffffffffffffffff1673ffffffffffffffffffffffffffffffffffffffff1673ffffffffffffffffffffffffffffffffffffffff16815260200190815260200160002087908060018154018082558091505090600182039060005260206000200160009091929091909150555060008311156128625784600801600184038154811015156127dc57fe5b906000526020600020906003020190508060010154600460008360000160009054906101000a900473ffffffffffffffffffffffffffffffffffffffff1673ffffffffffffffffffffffffffffffffffffffff1673ffffffffffffffffffffffffffffffffffffffff168152602001908152602001600020600082825401925050819055505b7f0e54eff26401bf69b81b26f60bd85ef47f5d85275c1d268d84f68d6897431c47878360000160009054906101000a900473ffffffffffffffffffffffffffffffffffffffff168460010154604051808481526020018373ffffffffffffffffffffffffffffffffffffffff1673ffffffffffffffffffffffffffffffffffffffff168152602001828152602001935050505060405180910390a1600195505050505050919050565b6000600260008373ffffffffffffffffffffffffffffffffffffffff1673ffffffffffffffffffffffffffffffffffffffff168152602001908152602001600020805490509050919050565b60026020528160005260406000208181548110151561297257fe5b90600052602060002001600091509150505481565b600061299282612db9565b602001519050919050565b60008060048361ffff168115156129b057fe5b0661ffff161415156129c55760009050612a19565b600060648361ffff168115156129d757fe5b0661ffff161415156129ec5760019050612a19565b60006101908361ffff168115156129ff57fe5b0661ffff16141515612a145760009050612a19565b600190505b919050565b600060018203915061019082811515612a3357fe5b04606483811515612a4057fe5b04600484811515612a4d57fe5b0403019050919050565b600060018360ff161480612a6e575060038360ff16145b80612a7c575060058360ff16145b80612a8a575060078360ff16145b80612a98575060088360ff16145b80612aa65750600a8360ff16145b80612ab45750600c8360ff16145b15612ac257601f9050612b1d565b60048360ff161480612ad7575060068360ff16145b80612ae5575060098360ff16145b80612af35750600b8360ff16145b15612b0157601e9050612b1d565b612b0a8261299d565b15612b1857601d9050612b1d565b601c90505b92915050565b60008060008084815481101515612b3657fe5b9060005260206000209060090201915060016002811115612b5357fe5b8260050160009054906101000a900460ff166002811115612b7057fe5b141515612b7c57600080fd5b600082600801805490501415612bbb5760028260050160006101000a81548160ff02191690836002811115612bad57fe5b021790555060019250612d2c565b816008016001836008018054905003815481101515612bd657fe5b90600052602060002090600302019050816006015482600701541115612d01578160000160009054906101000a900473ffffffffffffffffffffffffffffffffffffffff1673ffffffffffffffffffffffffffffffffffffffff166108fc82600101549081150290604051600060405180830381858888f19350505050158015612c64573d6000803e3d6000fd5b507fab41e3f06042d2db81478807ab10a02315433d6f63128f9e25858e37e2ac7dfe848260000160009054906101000a900473ffffffffffffffffffffffffffffffffffffffff168460070154604051808481526020018373ffffffffffffffffffffffffffffffffffffffff1673ffffffffffffffffffffffffffffffffffffffff168152602001828152602001935050505060405180910390a15b60028260050160006101000a81548160ff02191690836002811115612d2257fe5b0217905550600192505b5050919050565b6000600160008373ffffffffffffffffffffffffffffffffffffffff1673ffffffffffffffffffffffffffffffffffffffff16815260200190815260200160002060030160009054906101000a900460ff169050919050565b60008080549050905090565b6000603c8083811515612da757fe5b04811515612db157fe5b069050919050565b612dc16130e2565b60008060008060009350612dd4866124f9565b856000019061ffff16908161ffff1681525050612df66107b261ffff16612a1e565b612e07866000015161ffff16612a1e565b039250826301e285000284019350826107b286600001510361ffff16036301e133800284019350600191505b600c8260ff16111515612e8b57612e4e828660000151612a57565b60ff1662015180029050858482011115612e795781856020019060ff16908160ff1681525050612e8b565b80840193508180600101925050612e33565b600191505b612ea285602001518660000151612a57565b60ff168260ff16111515612ee957858462015180011115612ed45781856040019060ff16908160ff1681525050612ee9565b62015180840193508180600101925050612e90565b612ef2866113cf565b856060019060ff16908160ff1681525050612f0c86612d98565b856080019060ff16908160ff1681525050612f2686612221565b8560a0019060ff16908160ff1681525050612f40866113fc565b8560c0019060ff16908160ff168152505050505050919050565b828054600181600116156101000203166002900490600052602060002090601f016020900481019282601f10612f9b57805160ff1916838001178555612fc9565b82800160010185558215612fc9579182015b82811115612fc8578251825591602001919060010190612fad565b5b509050612fd69190613136565b5090565b81548183558181111561300757600902816009028360005260206000209182019101613006919061315b565b5b505050565b828054600181600116156101000203166002900490600052602060002090601f016020900481019282601f1061304d57805160ff191683800117855561307b565b8280016001018555821561307b579182015b8281111561307a57825182559160200191906001019061305f565b5b5090506130889190613136565b5090565b61018060405190810160405280600c90602082028038833980820191505090505090565b8154818355818111156130dd576003028160030283600052602060002091820191016130dc919061320d565b5b505050565b60e060405190810160405280600061ffff168152602001600060ff168152602001600060ff168152602001600060ff168152602001600060ff168152602001600060ff168152602001600060ff1681525090565b61315891905b8082111561315457600081600090555060010161313c565b5090565b90565b61320a91905b8082111561320657600080820160006101000a81549073ffffffffffffffffffffffffffffffffffffffff02191690556001820160006131a19190613263565b6002820160006131b19190613263565b6003820160006131c19190613263565b60048201600090556005820160006101000a81549060ff0219169055600682016000905560078201600090556008820160006131fd91906132ab565b50600901613161565b5090565b90565b61326091905b8082111561325c57600080820160006101000a81549073ffffffffffffffffffffffffffffffffffffffff02191690556001820160009055600282016000905550600301613213565b5090565b90565b50805460018160011615610100020316600290046000825580601f1061328957506132a8565b601f0160209004906000526020600020908101906132a79190613136565b5b50565b50805460008255600302906000526020600020908101906132cc919061320d565b505600a165627a7a7230582060dee37f16efbb14a31962171399cfdea14d85dd2c82389ec594bd5fdf9c0ddf0029",
  "source": "pragma solidity ^ 0.4 .24;\n\ncontract AuctchainHouse {\n\n    // Enum for auction status\n    enum AuctionStatus {\n        Pending,\n        Active,\n        Inactive\n    }\n\n    // Struct for Bid metadata\n    struct Bid {\n        address bidder;\n        uint amount;\n        uint timestamp;\n    }\n\n    // Struct for PersonInfo metadata\n    struct PersonInfo {\n        string name;\n        string email;\n        string contact;\n        bool status;\n    }\n\n    // Struct for Auction metadata\n    struct Auction {\n        // Location and ownership information of the item for sale\n        address seller;\n\n        // Auction metadata\n        string title;\n        string description;\n        string link;\n        uint blockNumberOfDeadline;\n        AuctionStatus status;\n\n        // Pricing\n        uint256 startingPrice;\n        uint256 currentBid;\n\n        // Bid data\n        Bid[] bids;\n    }\n\n    Auction[] public auctions; // All created auctions\n\n    mapping(address => PersonInfo) registeredUser;\n    mapping(address => uint[]) public auctionsRunByUser; // Pointer to auctions index for auctions run\n    mapping(address => uint[]) public auctionsBidOnByUser; // Pointer to auctions index for auctions has bid on\n    mapping(address => uint) refunds;\n    mapping(address => Bid) public History;\n\n    // All Events\n    event AccountRegistered(string name, string email, string contact);\n    event AuctionCreated(uint id, string title, uint256 startingPrice);\n    event BidPlaced(uint auctionId, address bidder, uint256 amount);\n    event AuctionEndedWithWinner(uint auctionId, address winningBidder, uint256 amount);\n    event AuctionEndedWithoutWinner(uint auctionId, uint256 topBid, uint256 reservePrice);\n\n    /* User Register Section ----------------------------------- */\n    // Function for user register\n    function register(\n        string _name,\n        string _email,\n        string _contact) public {\n\n        registeredUser[msg.sender] = PersonInfo(_name, _email, _contact, true);\n        emit AccountRegistered(_name, _email, _contact);\n    }\n\n    // Function for check that user are registered\n    function isRegistered(address addr) public view returns(bool) {\n        return registeredUser[addr].status;\n    }\n\n    function getRegisteredData(address addr) public view returns(string, string, string) {\n        return (\n            registeredUser[addr].name,\n            registeredUser[addr].email,\n            registeredUser[addr].contact);\n    }\n    /* End User Register Section ------------------------------- */\n\n    /* Auction Section ----------------------------------------- */\n    function createAuction(\n        string _title,\n        string _description,\n        string _link,\n        uint _deadline,\n        uint256 _startingPrice) public returns(uint auctionId) {\n\n        require(registeredUser[msg.sender].status);\n\n        auctionId = auctions.length++;\n        Auction a = auctions[auctionId];\n\n        a.seller = msg.sender;\n        a.title = _title;\n        a.description = _description;\n        a.link = _link;\n        a.blockNumberOfDeadline = _deadline;\n        a.status = AuctionStatus.Active;\n        a.startingPrice = _startingPrice;\n        a.currentBid = _startingPrice;\n\n        auctionsRunByUser[a.seller].push(auctionId);\n\n        emit AuctionCreated(auctionId, a.title, a.startingPrice);\n    }\n\n    function getAuction(uint idx) public view returns(\n        address,\n        string,\n        string,\n        string,\n        uint,\n        uint256,\n        uint) {\n\n        Auction a = auctions[idx];\n\n        return (\n            a.seller,\n            a.title,\n            a.description,\n            a.link,\n            a.blockNumberOfDeadline,\n            a.startingPrice,\n            a.bids.length);\n    }\n\n    function getAuctionCount() public view returns(uint) {\n        return auctions.length;\n    }\n\n    function getStatus(uint idx) public view returns(uint) {\n        Auction a = auctions[idx];\n        return uint(a.status);\n    }\n\n    function getAuctionsCountForUser(address addr) public view returns(uint) {\n        return auctionsRunByUser[addr].length;\n    }\n\n    function getAuctionIdForUserAndIdx(address addr, uint idx) public view returns(uint) {\n        return auctionsRunByUser[addr][idx];\n    }\n\n    function getBidCountForAuction(uint auctionId) public view returns(uint) {\n        Auction a = auctions[auctionId];\n        return a.bids.length;\n    }\n\n    function getBidForAuctionByIdx(uint auctionId, uint idx) public view\n    returns(address bidder, uint256 amount, uint timestamp) {\n        Auction a = auctions[auctionId];\n        require(idx <= a.bids.length - 1);\n\n        Bid b = a.bids[idx];\n        return (b.bidder, b.amount, b.timestamp);\n    }\n\n    function placeBid(uint auctionId) public payable returns(bool success) {\n        require(registeredUser[msg.sender].status);\n\n        Auction a = auctions[auctionId];\n        require(a.seller != msg.sender);\n\n        uint256 amount = msg.value;\n        require(a.currentBid < amount);\n\n        uint bidIdx = a.bids.length++;\n        Bid b = a.bids[bidIdx];\n        b.bidder = msg.sender;\n        b.amount = amount;\n        b.timestamp = now;\n        a.currentBid = amount;\n\n        auctionsBidOnByUser[b.bidder].push(auctionId);\n\n        // Log refunds for the previous bidder\n        if (bidIdx > 0) {\n            Bid previousBid = a.bids[bidIdx - 1];\n            refunds[previousBid.bidder] += previousBid.amount;\n        }\n\n        emit BidPlaced(auctionId, b.bidder, b.amount);\n        return true;\n    }\n\n    function getRefundValue() public view returns(uint) {\n        return refunds[msg.sender];\n    }\n\n    function withdrawRefund() public returns(bool) {\n        uint refund = refunds[msg.sender];\n        refunds[msg.sender] = 0;\n        msg.sender.transfer(refund);\n    }\n\n    function endAuction(uint auctionId) public returns(bool success) {\n        Auction a = auctions[auctionId];\n\n        // Make sure auction hasn't already been ended\n        require(a.status == AuctionStatus.Active);\n\n        // require(block.number >= a.blockNumberOfDeadline); // Still learn more about this\n\n        // No bids, make the auction inactive\n        if (a.bids.length == 0) {\n            a.status = AuctionStatus.Inactive;\n            return true;\n        }\n\n        Bid topBid = a.bids[a.bids.length - 1];\n\n        // If the auction hit its reserve price\n        if (a.currentBid > a.startingPrice) {\n            a.seller.transfer(topBid.amount);\n            emit AuctionEndedWithWinner(auctionId, topBid.bidder, a.currentBid);\n        }\n\n        a.status = AuctionStatus.Inactive;\n        return true;\n\n    }\n    /* End Auction Section ------------------------------------- */\n\n    /* Time Section -------------------------------------------- */\n    struct _DateTime {\n        uint16 year;\n        uint8 month;\n        uint8 day;\n        uint8 hour;\n        uint8 minute;\n        uint8 second;\n        uint8 weekday;\n    }\n\n    uint constant DAY_IN_SECONDS = 86400;\n    uint constant YEAR_IN_SECONDS = 31536000;\n    uint constant LEAP_YEAR_IN_SECONDS = 31622400;\n\n    uint constant HOUR_IN_SECONDS = 3600;\n    uint constant MINUTE_IN_SECONDS = 60;\n\n    uint16 constant ORIGIN_YEAR = 1970;\n\n    function isLeapYear(uint16 year) public pure returns(bool) {\n        if (year % 4 != 0) {\n            return false;\n        }\n        if (year % 100 != 0) {\n            return true;\n        }\n        if (year % 400 != 0) {\n            return false;\n        }\n        return true;\n    }\n\n    function leapYearsBefore(uint year) public pure returns(uint) {\n        year -= 1;\n        return year / 4 - year / 100 + year / 400;\n    }\n\n    function getDaysInMonth(uint8 month, uint16 year) public pure returns(uint8) {\n        if (month == 1 || month == 3 || month == 5 || month == 7 || month == 8 || month == 10 || month == 12) {\n            return 31;\n        } else if (month == 4 || month == 6 || month == 9 || month == 11) {\n            return 30;\n        } else if (isLeapYear(year)) {\n            return 29;\n        } else {\n            return 28;\n        }\n    }\n\n    function parseTimestamp(uint timestamp) internal pure returns(_DateTime dt) {\n        uint secondsAccountedFor = 0;\n        uint buf;\n        uint8 i;\n\n        // Year\n        dt.year = getYear(timestamp);\n        buf = leapYearsBefore(dt.year) - leapYearsBefore(ORIGIN_YEAR);\n\n        secondsAccountedFor += LEAP_YEAR_IN_SECONDS * buf;\n        secondsAccountedFor += YEAR_IN_SECONDS * (dt.year - ORIGIN_YEAR - buf);\n\n        // Month\n        uint secondsInMonth;\n        for (i = 1; i <= 12; i++) {\n            secondsInMonth = DAY_IN_SECONDS * getDaysInMonth(i, dt.year);\n            if (secondsInMonth + secondsAccountedFor > timestamp) {\n                dt.month = i;\n                break;\n            }\n            secondsAccountedFor += secondsInMonth;\n        }\n\n        // Day\n        for (i = 1; i <= getDaysInMonth(dt.month, dt.year); i++) {\n            if (DAY_IN_SECONDS + secondsAccountedFor > timestamp) {\n                dt.day = i;\n                break;\n            }\n            secondsAccountedFor += DAY_IN_SECONDS;\n        }\n\n        // Hour\n        dt.hour = getHour(timestamp);\n\n        // Minute\n        dt.minute = getMinute(timestamp);\n\n        // Second\n        dt.second = getSecond(timestamp);\n\n        // Day of week.\n        dt.weekday = getWeekday(timestamp);\n    }\n\n    function getYear(uint timestamp) public pure returns(uint16) {\n        uint secondsAccountedFor = 0;\n        uint16 year;\n        uint numLeapYears;\n\n        // Year\n        year = uint16(ORIGIN_YEAR + timestamp / YEAR_IN_SECONDS);\n        numLeapYears = leapYearsBefore(year) - leapYearsBefore(ORIGIN_YEAR);\n\n        secondsAccountedFor += LEAP_YEAR_IN_SECONDS * numLeapYears;\n        secondsAccountedFor += YEAR_IN_SECONDS * (year - ORIGIN_YEAR - numLeapYears);\n\n        while (secondsAccountedFor > timestamp) {\n            if (isLeapYear(uint16(year - 1))) {\n                secondsAccountedFor -= LEAP_YEAR_IN_SECONDS;\n            } else {\n                secondsAccountedFor -= YEAR_IN_SECONDS;\n            }\n            year -= 1;\n        }\n        return year;\n    }\n\n    function getMonth(uint timestamp) public pure returns(uint8) {\n        return parseTimestamp(timestamp).month;\n    }\n\n    function getDay(uint timestamp) public pure returns(uint8) {\n        return parseTimestamp(timestamp).day;\n    }\n\n    function getHour(uint timestamp) public pure returns(uint8) {\n        return uint8((timestamp / 60 / 60) % 24);\n    }\n\n    function getMinute(uint timestamp) public pure returns(uint8) {\n        return uint8((timestamp / 60) % 60);\n    }\n\n    function getSecond(uint timestamp) public pure returns(uint8) {\n        return uint8(timestamp % 60);\n    }\n\n    function getWeekday(uint timestamp) public pure returns(uint8) {\n        return uint8((timestamp / DAY_IN_SECONDS + 4) % 7);\n    }\n\n    function toTimestamp(uint16 year, uint8 month, uint8 day) public pure returns(uint timestamp) {\n        return toTimestamp(year, month, day, 0, 0, 0);\n    }\n\n    function toTimestamp(uint16 year, uint8 month, uint8 day, uint8 hour) public pure returns(uint timestamp) {\n        return toTimestamp(year, month, day, hour, 0, 0);\n    }\n\n    function toTimestamp(uint16 year, uint8 month, uint8 day, uint8 hour, uint8 minute) public pure returns(uint timestamp) {\n        return toTimestamp(year, month, day, hour, minute, 0);\n    }\n\n    function toTimestamp(uint16 year, uint8 month, uint8 day, uint8 hour, uint8 minute, uint8 second) public pure returns(uint timestamp) {\n        uint16 i;\n\n        // Year\n        for (i = ORIGIN_YEAR; i < year; i++) {\n            if (isLeapYear(i)) {\n                timestamp += LEAP_YEAR_IN_SECONDS;\n            } else {\n                timestamp += YEAR_IN_SECONDS;\n            }\n        }\n\n        // Month\n        uint8[12] memory monthDayCounts;\n        monthDayCounts[0] = 31;\n        if (isLeapYear(year)) {\n            monthDayCounts[1] = 29;\n        } else {\n            monthDayCounts[1] = 28;\n        }\n        monthDayCounts[2] = 31;\n        monthDayCounts[3] = 30;\n        monthDayCounts[4] = 31;\n        monthDayCounts[5] = 30;\n        monthDayCounts[6] = 31;\n        monthDayCounts[7] = 31;\n        monthDayCounts[8] = 30;\n        monthDayCounts[9] = 31;\n        monthDayCounts[10] = 30;\n        monthDayCounts[11] = 31;\n\n        for (i = 1; i < month; i++) {\n            timestamp += DAY_IN_SECONDS * monthDayCounts[i - 1];\n        }\n\n        // Day\n        timestamp += DAY_IN_SECONDS * (day - 1);\n\n        // Hour\n        timestamp += HOUR_IN_SECONDS * (hour);\n\n        // Minute\n        timestamp += MINUTE_IN_SECONDS * (minute);\n\n        // Second\n        timestamp += second;\n\n        return timestamp;\n    }\n    /* End Time Section ---------------------------------------- */\n}",
  "sourcePath": "D:\\_APP\\new_xampp\\htdocs\\Auctchain\\contracts\\Auction.sol",
  "compiler": {
    "name": "solc",
    "version": "0.4.24+commit.e67f0147.Emscripten.clang"
  },
  "schemaVersion": "2.0.1",
  "updatedAt": "2018-12-17T22:21:18.107Z"
}