{
  "contractName": "AuctchainHouse",
  "abi": [
    {
      "constant": true,
      "inputs": [
        {
          "name": "",
          "type": "uint256"
        }
      ],
      "name": "auctions",
      "outputs": [
        {
          "name": "seller",
          "type": "address"
        },
        {
          "name": "title",
          "type": "string"
        },
        {
          "name": "description",
          "type": "string"
        },
        {
          "name": "link",
          "type": "string"
        },
        {
          "name": "blockNumberOfDeadline",
          "type": "uint256"
        },
        {
          "name": "status",
          "type": "uint8"
        },
        {
          "name": "startingPrice",
          "type": "uint256"
        },
        {
          "name": "currentBid",
          "type": "uint256"
        }
      ],
      "payable": false,
      "stateMutability": "view",
      "type": "function"
    },
    {
      "constant": true,
      "inputs": [
        {
          "name": "",
          "type": "address"
        }
      ],
      "name": "History",
      "outputs": [
        {
          "name": "bidder",
          "type": "address"
        },
        {
          "name": "amount",
          "type": "uint256"
        },
        {
          "name": "timestamp",
          "type": "uint256"
        }
      ],
      "payable": false,
      "stateMutability": "view",
      "type": "function"
    },
    {
      "constant": true,
      "inputs": [
        {
          "name": "",
          "type": "address"
        },
        {
          "name": "",
          "type": "uint256"
        }
      ],
      "name": "auctionsBidOnByUser",
      "outputs": [
        {
          "name": "",
          "type": "uint256"
        }
      ],
      "payable": false,
      "stateMutability": "view",
      "type": "function"
    },
    {
      "constant": true,
      "inputs": [
        {
          "name": "",
          "type": "address"
        },
        {
          "name": "",
          "type": "uint256"
        }
      ],
      "name": "auctionsRunByUser",
      "outputs": [
        {
          "name": "",
          "type": "uint256"
        }
      ],
      "payable": false,
      "stateMutability": "view",
      "type": "function"
    },
    {
      "anonymous": false,
      "inputs": [
        {
          "indexed": false,
          "name": "name",
          "type": "string"
        },
        {
          "indexed": false,
          "name": "email",
          "type": "string"
        },
        {
          "indexed": false,
          "name": "contact",
          "type": "string"
        }
      ],
      "name": "AccountRegistered",
      "type": "event"
    },
    {
      "anonymous": false,
      "inputs": [
        {
          "indexed": false,
          "name": "id",
          "type": "uint256"
        },
        {
          "indexed": false,
          "name": "title",
          "type": "string"
        },
        {
          "indexed": false,
          "name": "startingPrice",
          "type": "uint256"
        }
      ],
      "name": "AuctionCreated",
      "type": "event"
    },
    {
      "anonymous": false,
      "inputs": [
        {
          "indexed": false,
          "name": "auctionId",
          "type": "uint256"
        },
        {
          "indexed": false,
          "name": "bidder",
          "type": "address"
        },
        {
          "indexed": false,
          "name": "amount",
          "type": "uint256"
        }
      ],
      "name": "BidPlaced",
      "type": "event"
    },
    {
      "anonymous": false,
      "inputs": [
        {
          "indexed": false,
          "name": "auctionId",
          "type": "uint256"
        },
        {
          "indexed": false,
          "name": "winningBidder",
          "type": "address"
        },
        {
          "indexed": false,
          "name": "amount",
          "type": "uint256"
        }
      ],
      "name": "AuctionEndedWithWinner",
      "type": "event"
    },
    {
      "anonymous": false,
      "inputs": [
        {
          "indexed": false,
          "name": "auctionId",
          "type": "uint256"
        },
        {
          "indexed": false,
          "name": "topBid",
          "type": "uint256"
        },
        {
          "indexed": false,
          "name": "reservePrice",
          "type": "uint256"
        }
      ],
      "name": "AuctionEndedWithoutWinner",
      "type": "event"
    },
    {
      "constant": false,
      "inputs": [
        {
          "name": "_name",
          "type": "string"
        },
        {
          "name": "_email",
          "type": "string"
        },
        {
          "name": "_contact",
          "type": "string"
        }
      ],
      "name": "register",
      "outputs": [],
      "payable": false,
      "stateMutability": "nonpayable",
      "type": "function"
    },
    {
      "constant": true,
      "inputs": [
        {
          "name": "addr",
          "type": "address"
        }
      ],
      "name": "isRegistered",
      "outputs": [
        {
          "name": "",
          "type": "bool"
        }
      ],
      "payable": false,
      "stateMutability": "view",
      "type": "function"
    },
    {
      "constant": true,
      "inputs": [
        {
          "name": "addr",
          "type": "address"
        }
      ],
      "name": "getRegisteredData",
      "outputs": [
        {
          "name": "",
          "type": "string"
        },
        {
          "name": "",
          "type": "string"
        },
        {
          "name": "",
          "type": "string"
        }
      ],
      "payable": false,
      "stateMutability": "view",
      "type": "function"
    },
    {
      "constant": false,
      "inputs": [
        {
          "name": "_title",
          "type": "string"
        },
        {
          "name": "_description",
          "type": "string"
        },
        {
          "name": "_link",
          "type": "string"
        },
        {
          "name": "_deadline",
          "type": "uint256"
        },
        {
          "name": "_startingPrice",
          "type": "uint256"
        }
      ],
      "name": "createAuction",
      "outputs": [
        {
          "name": "auctionId",
          "type": "uint256"
        }
      ],
      "payable": false,
      "stateMutability": "nonpayable",
      "type": "function"
    },
    {
      "constant": true,
      "inputs": [
        {
          "name": "idx",
          "type": "uint256"
        }
      ],
      "name": "getAuction",
      "outputs": [
        {
          "name": "",
          "type": "address"
        },
        {
          "name": "",
          "type": "string"
        },
        {
          "name": "",
          "type": "string"
        },
        {
          "name": "",
          "type": "string"
        },
        {
          "name": "",
          "type": "uint256"
        },
        {
          "name": "",
          "type": "uint256"
        },
        {
          "name": "",
          "type": "uint256"
        }
      ],
      "payable": false,
      "stateMutability": "view",
      "type": "function"
    },
    {
      "constant": true,
      "inputs": [],
      "name": "getAuctionCount",
      "outputs": [
        {
          "name": "",
          "type": "uint256"
        }
      ],
      "payable": false,
      "stateMutability": "view",
      "type": "function"
    },
    {
      "constant": true,
      "inputs": [
        {
          "name": "idx",
          "type": "uint256"
        }
      ],
      "name": "getStatus",
      "outputs": [
        {
          "name": "",
          "type": "uint256"
        }
      ],
      "payable": false,
      "stateMutability": "view",
      "type": "function"
    },
    {
      "constant": true,
      "inputs": [
        {
          "name": "addr",
          "type": "address"
        }
      ],
      "name": "getAuctionsCountForUser",
      "outputs": [
        {
          "name": "",
          "type": "uint256"
        }
      ],
      "payable": false,
      "stateMutability": "view",
      "type": "function"
    },
    {
      "constant": true,
      "inputs": [
        {
          "name": "addr",
          "type": "address"
        },
        {
          "name": "idx",
          "type": "uint256"
        }
      ],
      "name": "getAuctionIdForUserAndIdx",
      "outputs": [
        {
          "name": "",
          "type": "uint256"
        }
      ],
      "payable": false,
      "stateMutability": "view",
      "type": "function"
    },
    {
      "constant": true,
      "inputs": [
        {
          "name": "auctionId",
          "type": "uint256"
        }
      ],
      "name": "getBidCountForAuction",
      "outputs": [
        {
          "name": "",
          "type": "uint256"
        }
      ],
      "payable": false,
      "stateMutability": "view",
      "type": "function"
    },
    {
      "constant": true,
      "inputs": [
        {
          "name": "auctionId",
          "type": "uint256"
        },
        {
          "name": "idx",
          "type": "uint256"
        }
      ],
      "name": "getBidForAuctionByIdx",
      "outputs": [
        {
          "name": "bidder",
          "type": "address"
        },
        {
          "name": "amount",
          "type": "uint256"
        },
        {
          "name": "timestamp",
          "type": "uint256"
        }
      ],
      "payable": false,
      "stateMutability": "view",
      "type": "function"
    },
    {
      "constant": false,
      "inputs": [
        {
          "name": "auctionId",
          "type": "uint256"
        }
      ],
      "name": "placeBid",
      "outputs": [
        {
          "name": "success",
          "type": "bool"
        }
      ],
      "payable": true,
      "stateMutability": "payable",
      "type": "function"
    },
    {
      "constant": true,
      "inputs": [],
      "name": "getRefundValue",
      "outputs": [
        {
          "name": "",
          "type": "uint256"
        }
      ],
      "payable": false,
      "stateMutability": "view",
      "type": "function"
    },
    {
      "constant": false,
      "inputs": [],
      "name": "withdrawRefund",
      "outputs": [
        {
          "name": "",
          "type": "bool"
        }
      ],
      "payable": false,
      "stateMutability": "nonpayable",
      "type": "function"
    },
    {
      "constant": false,
      "inputs": [
        {
          "name": "auctionId",
          "type": "uint256"
        }
      ],
      "name": "endAuction",
      "outputs": [
        {
          "name": "success",
          "type": "bool"
        }
      ],
      "payable": false,
      "stateMutability": "nonpayable",
      "type": "function"
    }
  ],
  "bytecode": "0x608060405234801561001057600080fd5b50612627806100206000396000f300608060405260043610610107576000357c0100000000000000000000000000000000000000000000000000000000900463ffffffff168063110f88741461010c5780631313c7391461013b57806324a12edf146101c05780634bc32ea2146102215780634cd08d0314610262578063571a26a01461035757806358574dca1461053257806359e540951461064f5780635c622a0e1461067a5780636f959d13146106bb57806378bd79351461074c5780637d176e3f1461091257806388c93e2214610aa65780639979ef4514610b075780639abb2c1614610b3f5780639ecbab2314610b96578063b9a2de3a14610bf7578063c3c5a54714610c3c578063c44e664014610c97575b600080fd5b34801561011857600080fd5b50610121610cc2565b604051808215151515815260200191505060405180910390f35b34801561014757600080fd5b506101706004803603810190808035906020019092919080359060200190929190505050610d97565b604051808473ffffffffffffffffffffffffffffffffffffffff1673ffffffffffffffffffffffffffffffffffffffff168152602001838152602001828152602001935050505060405180910390f35b3480156101cc57600080fd5b5061020b600480360381019080803573ffffffffffffffffffffffffffffffffffffffff16906020019092919080359060200190929190505050610e35565b6040518082815260200191505060405180910390f35b34801561022d57600080fd5b5061024c60048036038101908080359060200190929190505050610e96565b6040518082815260200191505060405180910390f35b34801561026e57600080fd5b50610355600480360381019080803590602001908201803590602001908080601f0160208091040260200160405190810160405280939291908181526020018383808284378201915050505050509192919290803590602001908201803590602001908080601f0160208091040260200160405190810160405280939291908181526020018383808284378201915050505050509192919290803590602001908201803590602001908080601f0160208091040260200160405190810160405280939291908181526020018383808284378201915050505050509192919290505050610ec8565b005b34801561036357600080fd5b5061038260048036038101908080359060200190929190505050611121565b604051808973ffffffffffffffffffffffffffffffffffffffff1673ffffffffffffffffffffffffffffffffffffffff1681526020018060200180602001806020018881526020018760028111156103d657fe5b60ff16815260200186815260200185815260200184810384528b818151815260200191508051906020019080838360005b83811015610422578082015181840152602081019050610407565b50505050905090810190601f16801561044f5780820380516001836020036101000a031916815260200191505b5084810383528a818151815260200191508051906020019080838360005b8381101561048857808201518184015260208101905061046d565b50505050905090810190601f1680156104b55780820380516001836020036101000a031916815260200191505b50848103825289818151815260200191508051906020019080838360005b838110156104ee5780820151818401526020810190506104d3565b50505050905090810190601f16801561051b5780820380516001836020036101000a031916815260200191505b509b50505050505050505050505060405180910390f35b34801561053e57600080fd5b50610639600480360381019080803590602001908201803590602001908080601f0160208091040260200160405190810160405280939291908181526020018383808284378201915050505050509192919290803590602001908201803590602001908080601f0160208091040260200160405190810160405280939291908181526020018383808284378201915050505050509192919290803590602001908201803590602001908080601f0160208091040260200160405190810160405280939291908181526020018383808284378201915050505050509192919290803590602001909291908035906020019092919050505061136d565b6040518082815260200191505060405180910390f35b34801561065b57600080fd5b50610664611636565b6040518082815260200191505060405180910390f35b34801561068657600080fd5b506106a56004803603810190808035906020019092919050505061167d565b6040518082815260200191505060405180910390f35b3480156106c757600080fd5b506106fc600480360381019080803573ffffffffffffffffffffffffffffffffffffffff1690602001909291905050506116c4565b604051808473ffffffffffffffffffffffffffffffffffffffff1673ffffffffffffffffffffffffffffffffffffffff168152602001838152602001828152602001935050505060405180910390f35b34801561075857600080fd5b506107776004803603810190808035906020019092919050505061170e565b604051808873ffffffffffffffffffffffffffffffffffffffff1673ffffffffffffffffffffffffffffffffffffffff16815260200180602001806020018060200187815260200186815260200185815260200184810384528a818151815260200191508051906020019080838360005b838110156108035780820151818401526020810190506107e8565b50505050905090810190601f1680156108305780820380516001836020036101000a031916815260200191505b50848103835289818151815260200191508051906020019080838360005b8381101561086957808201518184015260208101905061084e565b50505050905090810190601f1680156108965780820380516001836020036101000a031916815260200191505b50848103825288818151815260200191508051906020019080838360005b838110156108cf5780820151818401526020810190506108b4565b50505050905090810190601f1680156108fc5780820380516001836020036101000a031916815260200191505b509a505050505050505050505060405180910390f35b34801561091e57600080fd5b50610953600480360381019080803573ffffffffffffffffffffffffffffffffffffffff1690602001909291905050506119ca565b60405180806020018060200180602001848103845287818151815260200191508051906020019080838360005b8381101561099b578082015181840152602081019050610980565b50505050905090810190601f1680156109c85780820380516001836020036101000a031916815260200191505b50848103835286818151815260200191508051906020019080838360005b83811015610a015780820151818401526020810190506109e6565b50505050905090810190601f168015610a2e5780820380516001836020036101000a031916815260200191505b50848103825285818151815260200191508051906020019080838360005b83811015610a67578082015181840152602081019050610a4c565b50505050905090810190601f168015610a945780820380516001836020036101000a031916815260200191505b50965050505050505060405180910390f35b348015610ab257600080fd5b50610af1600480360381019080803573ffffffffffffffffffffffffffffffffffffffff16906020019092919080359060200190929190505050611c76565b6040518082815260200191505060405180910390f35b610b2560048036038101908080359060200190929190505050611ca6565b604051808215151515815260200191505060405180910390f35b348015610b4b57600080fd5b50610b80600480360381019080803573ffffffffffffffffffffffffffffffffffffffff16906020019092919050505061200d565b6040518082815260200191505060405180910390f35b348015610ba257600080fd5b50610be1600480360381019080803573ffffffffffffffffffffffffffffffffffffffff16906020019092919080359060200190929190505050612059565b6040518082815260200191505060405180910390f35b348015610c0357600080fd5b50610c2260048036038101908080359060200190929190505050612089565b604051808215151515815260200191505060405180910390f35b348015610c4857600080fd5b50610c7d600480360381019080803573ffffffffffffffffffffffffffffffffffffffff169060200190929190505050612299565b604051808215151515815260200191505060405180910390f35b348015610ca357600080fd5b50610cac6122f2565b6040518082815260200191505060405180910390f35b600080600460003373ffffffffffffffffffffffffffffffffffffffff1673ffffffffffffffffffffffffffffffffffffffff1681526020019081526020016000205490506000600460003373ffffffffffffffffffffffffffffffffffffffff1673ffffffffffffffffffffffffffffffffffffffff168152602001908152602001600020819055503373ffffffffffffffffffffffffffffffffffffffff166108fc829081150290604051600060405180830381858888f19350505050158015610d92573d6000803e3d6000fd5b505090565b60008060008060008087815481101515610dad57fe5b9060005260206000209060090201915060018260080180549050038611151515610dd657600080fd5b8160080186815481101515610de757fe5b906000526020600020906003020190508060000160009054906101000a900473ffffffffffffffffffffffffffffffffffffffff168160010154826002015494509450945050509250925092565b6000600260008473ffffffffffffffffffffffffffffffffffffffff1673ffffffffffffffffffffffffffffffffffffffff16815260200190815260200160002082815481101515610e8357fe5b9060005260206000200154905092915050565b600080600083815481101515610ea857fe5b906000526020600020906009020190508060080180549050915050919050565b60806040519081016040528084815260200183815260200182815260200160011515815250600160003373ffffffffffffffffffffffffffffffffffffffff1673ffffffffffffffffffffffffffffffffffffffff1681526020019081526020016000206000820151816000019080519060200190610f489291906122fe565b506020820151816001019080519060200190610f659291906122fe565b506040820151816002019080519060200190610f829291906122fe565b5060608201518160030160006101000a81548160ff0219169083151502179055509050507fdc107de4c3c731b352a259c166ef69efecf42c27fd6931856cb10f96ade2dc0583838360405180806020018060200180602001848103845287818151815260200191508051906020019080838360005b83811015611012578082015181840152602081019050610ff7565b50505050905090810190601f16801561103f5780820380516001836020036101000a031916815260200191505b50848103835286818151815260200191508051906020019080838360005b8381101561107857808201518184015260208101905061105d565b50505050905090810190601f1680156110a55780820380516001836020036101000a031916815260200191505b50848103825285818151815260200191508051906020019080838360005b838110156110de5780820151818401526020810190506110c3565b50505050905090810190601f16801561110b5780820380516001836020036101000a031916815260200191505b50965050505050505060405180910390a1505050565b60008181548110151561113057fe5b90600052602060002090600902016000915090508060000160009054906101000a900473ffffffffffffffffffffffffffffffffffffffff1690806001018054600181600116156101000203166002900480601f0160208091040260200160405190810160405280929190818152602001828054600181600116156101000203166002900480156112025780601f106111d757610100808354040283529160200191611202565b820191906000526020600020905b8154815290600101906020018083116111e557829003601f168201915b505050505090806002018054600181600116156101000203166002900480601f0160208091040260200160405190810160405280929190818152602001828054600181600116156101000203166002900480156112a05780601f10611275576101008083540402835291602001916112a0565b820191906000526020600020905b81548152906001019060200180831161128357829003601f168201915b505050505090806003018054600181600116156101000203166002900480601f01602080910402602001604051908101604052809291908181526020018280546001816001161561010002031660029004801561133e5780601f106113135761010080835404028352916020019161133e565b820191906000526020600020905b81548152906001019060200180831161132157829003601f168201915b5050505050908060040154908060050160009054906101000a900460ff16908060060154908060070154905088565b600080600160003373ffffffffffffffffffffffffffffffffffffffff1673ffffffffffffffffffffffffffffffffffffffff16815260200190815260200160002060030160009054906101000a900460ff1615156113cb57600080fd5b600080548091906001016113df919061237e565b91506000828154811015156113f057fe5b90600052602060002090600902019050338160000160006101000a81548173ffffffffffffffffffffffffffffffffffffffff021916908373ffffffffffffffffffffffffffffffffffffffff1602179055508681600101908051906020019061145b9291906123b0565b50858160020190805190602001906114749291906123b0565b508481600301908051906020019061148d9291906123b0565b5083816004018190555060018160050160006101000a81548160ff021916908360028111156114b857fe5b0217905550828160060181905550828160070181905550600260008260000160009054906101000a900473ffffffffffffffffffffffffffffffffffffffff1673ffffffffffffffffffffffffffffffffffffffff1673ffffffffffffffffffffffffffffffffffffffff1681526020019081526020016000208290806001815401808255809150509060018203906000526020600020016000909192909190915055507f71ec34891b539684f9d6a8e102eaab1a9aebc42e3c7a517ed2a3e911f269504482826001018360060154604051808481526020018060200183815260200182810382528481815460018160011615610100020316600290048152602001915080546001816001161561010002031660029004801561161c5780601f106115f15761010080835404028352916020019161161c565b820191906000526020600020905b8154815290600101906020018083116115ff57829003601f168201915b505094505050505060405180910390a15095945050505050565b6000600460003373ffffffffffffffffffffffffffffffffffffffff1673ffffffffffffffffffffffffffffffffffffffff16815260200190815260200160002054905090565b60008060008381548110151561168f57fe5b906000526020600020906009020190508060050160009054906101000a900460ff1660028111156116bc57fe5b915050919050565b60056020528060005260406000206000915090508060000160009054906101000a900473ffffffffffffffffffffffffffffffffffffffff16908060010154908060020154905083565b6000606080606060008060008060008981548110151561172a57fe5b906000526020600020906009020190503373ffffffffffffffffffffffffffffffffffffffff168160000160009054906101000a900473ffffffffffffffffffffffffffffffffffffffff1673ffffffffffffffffffffffffffffffffffffffff161415151561179957600080fd5b8060000160009054906101000a900473ffffffffffffffffffffffffffffffffffffffff16816001018260020183600301846004015485600601548660080180549050858054600181600116156101000203166002900480601f0160208091040260200160405190810160405280929190818152602001828054600181600116156101000203166002900480156118715780601f1061184657610100808354040283529160200191611871565b820191906000526020600020905b81548152906001019060200180831161185457829003601f168201915b50505050509550848054600181600116156101000203166002900480601f01602080910402602001604051908101604052809291908181526020018280546001816001161561010002031660029004801561190d5780601f106118e25761010080835404028352916020019161190d565b820191906000526020600020905b8154815290600101906020018083116118f057829003601f168201915b50505050509450838054600181600116156101000203166002900480601f0160208091040260200160405190810160405280929190818152602001828054600181600116156101000203166002900480156119a95780601f1061197e576101008083540402835291602001916119a9565b820191906000526020600020905b81548152906001019060200180831161198c57829003601f168201915b50505050509350975097509750975097509750975050919395979092949650565b6060806060600160008573ffffffffffffffffffffffffffffffffffffffff1673ffffffffffffffffffffffffffffffffffffffff168152602001908152602001600020600001600160008673ffffffffffffffffffffffffffffffffffffffff1673ffffffffffffffffffffffffffffffffffffffff168152602001908152602001600020600101600160008773ffffffffffffffffffffffffffffffffffffffff1673ffffffffffffffffffffffffffffffffffffffff168152602001908152602001600020600201828054600181600116156101000203166002900480601f016020809104026020016040519081016040528092919081815260200182805460018160011615610100020316600290048015611b2a5780601f10611aff57610100808354040283529160200191611b2a565b820191906000526020600020905b815481529060010190602001808311611b0d57829003601f168201915b50505050509250818054600181600116156101000203166002900480601f016020809104026020016040519081016040528092919081815260200182805460018160011615610100020316600290048015611bc65780601f10611b9b57610100808354040283529160200191611bc6565b820191906000526020600020905b815481529060010190602001808311611ba957829003601f168201915b50505050509150808054600181600116156101000203166002900480601f016020809104026020016040519081016040528092919081815260200182805460018160011615610100020316600290048015611c625780601f10611c3757610100808354040283529160200191611c62565b820191906000526020600020905b815481529060010190602001808311611c4557829003601f168201915b505050505090509250925092509193909250565b600360205281600052604060002081815481101515611c9157fe5b90600052602060002001600091509150505481565b600080600080600080600160003373ffffffffffffffffffffffffffffffffffffffff1673ffffffffffffffffffffffffffffffffffffffff16815260200190815260200160002060030160009054906101000a900460ff161515611d0a57600080fd5b600087815481101515611d1957fe5b906000526020600020906009020194503373ffffffffffffffffffffffffffffffffffffffff168560000160009054906101000a900473ffffffffffffffffffffffffffffffffffffffff1673ffffffffffffffffffffffffffffffffffffffff1614151515611d8857600080fd5b349350838560070154101515611d9d57600080fd5b846008018054809190600101611db39190612430565b92508460080183815481101515611dc657fe5b90600052602060002090600302019150338260000160006101000a81548173ffffffffffffffffffffffffffffffffffffffff021916908373ffffffffffffffffffffffffffffffffffffffff160217905550838260010181905550428260020181905550838560070181905550600360008360000160009054906101000a900473ffffffffffffffffffffffffffffffffffffffff1673ffffffffffffffffffffffffffffffffffffffff1673ffffffffffffffffffffffffffffffffffffffff1681526020019081526020016000208790806001815401808255809150509060018203906000526020600020016000909192909190915055506000831115611f64578460080160018403815481101515611ede57fe5b906000526020600020906003020190508060010154600460008360000160009054906101000a900473ffffffffffffffffffffffffffffffffffffffff1673ffffffffffffffffffffffffffffffffffffffff1673ffffffffffffffffffffffffffffffffffffffff168152602001908152602001600020600082825401925050819055505b7f0e54eff26401bf69b81b26f60bd85ef47f5d85275c1d268d84f68d6897431c47878360000160009054906101000a900473ffffffffffffffffffffffffffffffffffffffff168460010154604051808481526020018373ffffffffffffffffffffffffffffffffffffffff1673ffffffffffffffffffffffffffffffffffffffff168152602001828152602001935050505060405180910390a1600195505050505050919050565b6000600260008373ffffffffffffffffffffffffffffffffffffffff1673ffffffffffffffffffffffffffffffffffffffff168152602001908152602001600020805490509050919050565b60026020528160005260406000208181548110151561207457fe5b90600052602060002001600091509150505481565b6000806000808481548110151561209c57fe5b90600052602060002090600902019150600160028111156120b957fe5b8260050160009054906101000a900460ff1660028111156120d657fe5b1415156120e257600080fd5b6000826008018054905014156121215760028260050160006101000a81548160ff0219169083600281111561211357fe5b021790555060019250612292565b81600801600183600801805490500381548110151561213c57fe5b90600052602060002090600302019050816006015482600701541115612267578160000160009054906101000a900473ffffffffffffffffffffffffffffffffffffffff1673ffffffffffffffffffffffffffffffffffffffff166108fc82600101549081150290604051600060405180830381858888f193505050501580156121ca573d6000803e3d6000fd5b507fab41e3f06042d2db81478807ab10a02315433d6f63128f9e25858e37e2ac7dfe848260000160009054906101000a900473ffffffffffffffffffffffffffffffffffffffff168460070154604051808481526020018373ffffffffffffffffffffffffffffffffffffffff1673ffffffffffffffffffffffffffffffffffffffff168152602001828152602001935050505060405180910390a15b60028260050160006101000a81548160ff0219169083600281111561228857fe5b0217905550600192505b5050919050565b6000600160008373ffffffffffffffffffffffffffffffffffffffff1673ffffffffffffffffffffffffffffffffffffffff16815260200190815260200160002060030160009054906101000a900460ff169050919050565b60008080549050905090565b828054600181600116156101000203166002900490600052602060002090601f016020900481019282601f1061233f57805160ff191683800117855561236d565b8280016001018555821561236d579182015b8281111561236c578251825591602001919060010190612351565b5b50905061237a9190612462565b5090565b8154818355818111156123ab576009028160090283600052602060002091820191016123aa9190612487565b5b505050565b828054600181600116156101000203166002900490600052602060002090601f016020900481019282601f106123f157805160ff191683800117855561241f565b8280016001018555821561241f579182015b8281111561241e578251825591602001919060010190612403565b5b50905061242c9190612462565b5090565b81548183558181111561245d5760030281600302836000526020600020918201910161245c9190612539565b5b505050565b61248491905b80821115612480576000816000905550600101612468565b5090565b90565b61253691905b8082111561253257600080820160006101000a81549073ffffffffffffffffffffffffffffffffffffffff02191690556001820160006124cd919061258f565b6002820160006124dd919061258f565b6003820160006124ed919061258f565b60048201600090556005820160006101000a81549060ff02191690556006820160009055600782016000905560088201600061252991906125d7565b5060090161248d565b5090565b90565b61258c91905b8082111561258857600080820160006101000a81549073ffffffffffffffffffffffffffffffffffffffff0219169055600182016000905560028201600090555060030161253f565b5090565b90565b50805460018160011615610100020316600290046000825580601f106125b557506125d4565b601f0160209004906000526020600020908101906125d39190612462565b5b50565b50805460008255600302906000526020600020908101906125f89190612539565b505600a165627a7a72305820444ce985a64fd143621677c9e8411e120cec1bb89a838ddaa706a70fa25b64b80029",
  "source": "pragma solidity ^0.4.24;\n\ncontract AuctchainHouse {\n    \n    // Enum for auction status\n    enum AuctionStatus {Pending, Active, Inactive}\n    \n    // Struct for Bid metadata\n    struct Bid {\n        address bidder;\n        uint amount;\n        uint timestamp;\n    }\n    \n    // Struct for PersonInfo metadata\n    struct PersonInfo{\n        string  name;\n        string  email;\n        string  contact;\n        bool status;\n    }\n    \n    // Struct for Auction metadata\n    struct Auction {\n        // Location and ownership information of the item for sale\n        address seller;\n        \n        // Auction metadata\n        string title;\n        string description;\n        string link;\n        uint blockNumberOfDeadline;\n        AuctionStatus status;\n        \n        // Pricing\n        uint256 startingPrice;\n        uint256 currentBid;\n        \n        // Bid data\n        Bid[] bids;\n    }\n    \n    Auction[] public auctions; // All created auctions\n    \n    mapping(address => PersonInfo) registeredUser;\n    mapping(address => uint[]) public auctionsRunByUser; // Pointer to auctions index for auctions run\n    mapping(address => uint[]) public auctionsBidOnByUser; // Pointer to auctions index for auctions has bid on\n    mapping(address => uint) refunds;\n    mapping(address => Bid) public History;\n    \n    // All Events\n    event AccountRegistered(string name, string email, string contact);\n    event AuctionCreated(uint id, string title, uint256 startingPrice);\n    event BidPlaced(uint auctionId, address bidder, uint256 amount);\n    event AuctionEndedWithWinner(uint auctionId, address winningBidder, uint256 amount);\n    event AuctionEndedWithoutWinner(uint auctionId, uint256 topBid, uint256 reservePrice);\n    \n    /* User Register Section ----------------------------------- */\n    // Function for user register\n    function register(\n        string _name,\n        string _email,\n        string _contact) public {\n            \n        registeredUser[msg.sender] = PersonInfo(_name,_email,_contact,true);\n        emit AccountRegistered(_name, _email, _contact);\n    }\n    \n    // Function for check that user are registered\n    function isRegistered(address addr) public view returns (bool) {\n        return registeredUser[addr].status;\n    }\n\n    function getRegisteredData(address addr) public view returns (string, string, string){\n        return (\n            registeredUser[addr].name,\n            registeredUser[addr].email,\n            registeredUser[addr].contact);\n    }\n    /* End User Register Section ------------------------------- */\n    \n    /* Auction Section ----------------------------------------- */\n    function createAuction(\n        string _title,\n        string _description,\n        string _link,\n        uint _deadline,\n        uint256 _startingPrice) public returns (uint auctionId) {\n        \n        require(registeredUser[msg.sender].status);\n    \n        auctionId = auctions.length++;\n        Auction storage a = auctions[auctionId];\n        \n        a.seller = msg.sender;\n        a.title = _title;\n        a.description = _description;\n        a.link = _link;\n        a.blockNumberOfDeadline = _deadline;\n        a.status = AuctionStatus.Active;\n        a.startingPrice = _startingPrice;\n        a.currentBid = _startingPrice;\n        \n        auctionsRunByUser[a.seller].push(auctionId);\n        \n        emit AuctionCreated(auctionId, a.title, a.startingPrice);\n    }\n    \n    function getAuction(uint idx) public view returns (\n        address,\n        string,\n        string,\n        string,\n        uint,\n        uint256,\n        uint) {\n        \n        Auction storage a = auctions[idx];\n        require(a.seller != msg.sender);\n        \n        return (\n            a.seller,\n            a.title,\n            a.description,\n            a.link,\n            a.blockNumberOfDeadline,\n            a.startingPrice,\n            a.bids.length);\n    }\n    \n    function getAuctionCount() public view returns (uint) {\n        return auctions.length;\n    }\n    \n    function getStatus(uint idx) public view returns (uint) {\n        Auction storage a = auctions[idx];\n        return uint(a.status);\n    }\n\n    function getAuctionsCountForUser(address addr) public view returns (uint) {\n        return auctionsRunByUser[addr].length;\n    }\n\n    function getAuctionIdForUserAndIdx(address addr, uint idx) public view returns (uint) {\n        return auctionsRunByUser[addr][idx];\n    }\n    \n    function getBidCountForAuction(uint auctionId) public view returns (uint) {\n        Auction storage a = auctions[auctionId];\n        return a.bids.length;\n    }\n    \n    function getBidForAuctionByIdx(uint auctionId, uint idx) public view \n        returns (address bidder, uint256 amount, uint timestamp) {\n        Auction storage a = auctions[auctionId];\n        require(idx <= a.bids.length - 1);\n\n        Bid storage b = a.bids[idx];\n        return (b.bidder, b.amount, b.timestamp);\n    }\n    \n    function placeBid(uint auctionId) public payable returns (bool success) {\n        require(registeredUser[msg.sender].status);\n        \n        Auction storage a = auctions[auctionId];\n        require(a.seller != msg.sender);\n        \n        uint256 amount = msg.value;\n        require(a.currentBid < amount);\n\n        uint bidIdx = a.bids.length++;\n        Bid storage b = a.bids[bidIdx];\n        b.bidder = msg.sender;\n        b.amount = amount;\n        b.timestamp = now;\n        a.currentBid = amount;\n\n        auctionsBidOnByUser[b.bidder].push(auctionId);\n\n        // Log refunds for the previous bidder\n        if (bidIdx > 0) {\n            Bid storage previousBid = a.bids[bidIdx - 1];\n            refunds[previousBid.bidder] += previousBid.amount;\n        }\n\n        emit BidPlaced(auctionId, b.bidder, b.amount);\n        return true;\n    }\n    \n    function getRefundValue() public view returns (uint) {\n        return refunds[msg.sender];\n    }\n\n    function withdrawRefund() public returns (bool) {\n        uint refund = refunds[msg.sender];\n        refunds[msg.sender] = 0;\n        msg.sender.transfer(refund);\n    }\n    \n    function endAuction(uint auctionId) public returns (bool success) {\n        Auction storage a = auctions[auctionId];\n\n        // Make sure auction hasn't already been ended\n        require(a.status == AuctionStatus.Active);\n        \n        // require(block.number >= a.blockNumberOfDeadline); // Still learn more about this\n\n        // No bids, make the auction inactive\n        if (a.bids.length == 0) {\n            a.status = AuctionStatus.Inactive;\n            return true;\n        }\n\n        Bid storage topBid = a.bids[a.bids.length - 1];\n\n        // If the auction hit its reserve price\n        if(a.currentBid > a.startingPrice) {\n            a.seller.transfer(topBid.amount);\n            emit AuctionEndedWithWinner(auctionId, topBid.bidder, a.currentBid);\n        }\n        \n        a.status = AuctionStatus.Inactive;\n        return true;\n        \n    }\n    /* End Auction Section ------------------------------------- */\n    \n    /* History Section ----------------------------------------- */\n    /* End History Section ------------------------------------- */\n}",
  "sourcePath": "D:\\_APP\\new_xampp\\htdocs\\Auctchain\\contracts\\Auction.sol",
  "compiler": {
    "name": "solc",
    "version": "0.4.24+commit.e67f0147.Emscripten.clang"
  },
  "schemaVersion": "2.0.1",
  "updatedAt": "2018-12-17T00:04:25.104Z"
}