{
  "contractName": "AuctchainHouse",
  "abi": [
    {
      "constant": true,
      "inputs": [
        {
          "name": "",
          "type": "uint256"
        }
      ],
      "name": "auctions",
      "outputs": [
        {
          "name": "seller",
          "type": "address"
        },
        {
          "name": "title",
          "type": "string"
        },
        {
          "name": "description",
          "type": "string"
        },
        {
          "name": "link",
          "type": "string"
        },
        {
          "name": "blockNumberOfDeadline",
          "type": "uint256"
        },
        {
          "name": "status",
          "type": "uint8"
        },
        {
          "name": "startingPrice",
          "type": "uint256"
        },
        {
          "name": "currentBid",
          "type": "uint256"
        }
      ],
      "payable": false,
      "stateMutability": "view",
      "type": "function"
    },
    {
      "constant": true,
      "inputs": [
        {
          "name": "",
          "type": "address"
        }
      ],
      "name": "History",
      "outputs": [
        {
          "name": "bidder",
          "type": "address"
        },
        {
          "name": "amount",
          "type": "uint256"
        },
        {
          "name": "timestamp",
          "type": "uint256"
        }
      ],
      "payable": false,
      "stateMutability": "view",
      "type": "function"
    },
    {
      "constant": true,
      "inputs": [
        {
          "name": "",
          "type": "address"
        },
        {
          "name": "",
          "type": "uint256"
        }
      ],
      "name": "auctionsBidOnByUser",
      "outputs": [
        {
          "name": "",
          "type": "uint256"
        }
      ],
      "payable": false,
      "stateMutability": "view",
      "type": "function"
    },
    {
      "constant": true,
      "inputs": [
        {
          "name": "",
          "type": "address"
        },
        {
          "name": "",
          "type": "uint256"
        }
      ],
      "name": "auctionsRunByUser",
      "outputs": [
        {
          "name": "",
          "type": "uint256"
        }
      ],
      "payable": false,
      "stateMutability": "view",
      "type": "function"
    },
    {
      "anonymous": false,
      "inputs": [
        {
          "indexed": false,
          "name": "name",
          "type": "string"
        },
        {
          "indexed": false,
          "name": "email",
          "type": "string"
        },
        {
          "indexed": false,
          "name": "contact",
          "type": "string"
        }
      ],
      "name": "AccountRegistered",
      "type": "event"
    },
    {
      "anonymous": false,
      "inputs": [
        {
          "indexed": false,
          "name": "id",
          "type": "uint256"
        },
        {
          "indexed": false,
          "name": "title",
          "type": "string"
        },
        {
          "indexed": false,
          "name": "startingPrice",
          "type": "uint256"
        }
      ],
      "name": "AuctionCreated",
      "type": "event"
    },
    {
      "anonymous": false,
      "inputs": [
        {
          "indexed": false,
          "name": "auctionId",
          "type": "uint256"
        },
        {
          "indexed": false,
          "name": "bidder",
          "type": "address"
        },
        {
          "indexed": false,
          "name": "amount",
          "type": "uint256"
        }
      ],
      "name": "BidPlaced",
      "type": "event"
    },
    {
      "anonymous": false,
      "inputs": [
        {
          "indexed": false,
          "name": "auctionId",
          "type": "uint256"
        },
        {
          "indexed": false,
          "name": "winningBidder",
          "type": "address"
        },
        {
          "indexed": false,
          "name": "amount",
          "type": "uint256"
        }
      ],
      "name": "AuctionEndedWithWinner",
      "type": "event"
    },
    {
      "anonymous": false,
      "inputs": [
        {
          "indexed": false,
          "name": "auctionId",
          "type": "uint256"
        },
        {
          "indexed": false,
          "name": "topBid",
          "type": "uint256"
        },
        {
          "indexed": false,
          "name": "reservePrice",
          "type": "uint256"
        }
      ],
      "name": "AuctionEndedWithoutWinner",
      "type": "event"
    },
    {
      "constant": false,
      "inputs": [
        {
          "name": "_name",
          "type": "string"
        },
        {
          "name": "_email",
          "type": "string"
        },
        {
          "name": "_contact",
          "type": "string"
        }
      ],
      "name": "register",
      "outputs": [],
      "payable": false,
      "stateMutability": "nonpayable",
      "type": "function"
    },
    {
      "constant": true,
      "inputs": [
        {
          "name": "addr",
          "type": "address"
        }
      ],
      "name": "isRegistered",
      "outputs": [
        {
          "name": "",
          "type": "bool"
        }
      ],
      "payable": false,
      "stateMutability": "view",
      "type": "function"
    },
    {
      "constant": true,
      "inputs": [],
      "name": "getRegisteredData",
      "outputs": [
        {
          "name": "",
          "type": "string"
        },
        {
          "name": "",
          "type": "string"
        },
        {
          "name": "",
          "type": "string"
        }
      ],
      "payable": false,
      "stateMutability": "view",
      "type": "function"
    },
    {
      "constant": false,
      "inputs": [
        {
          "name": "_title",
          "type": "string"
        },
        {
          "name": "_description",
          "type": "string"
        },
        {
          "name": "_link",
          "type": "string"
        },
        {
          "name": "_deadline",
          "type": "uint256"
        },
        {
          "name": "_startingPrice",
          "type": "uint256"
        }
      ],
      "name": "createAuction",
      "outputs": [
        {
          "name": "auctionId",
          "type": "uint256"
        }
      ],
      "payable": false,
      "stateMutability": "nonpayable",
      "type": "function"
    },
    {
      "constant": true,
      "inputs": [
        {
          "name": "idx",
          "type": "uint256"
        }
      ],
      "name": "getAuction",
      "outputs": [
        {
          "name": "",
          "type": "address"
        },
        {
          "name": "",
          "type": "string"
        },
        {
          "name": "",
          "type": "string"
        },
        {
          "name": "",
          "type": "string"
        },
        {
          "name": "",
          "type": "uint256"
        },
        {
          "name": "",
          "type": "uint256"
        },
        {
          "name": "",
          "type": "uint256"
        }
      ],
      "payable": false,
      "stateMutability": "view",
      "type": "function"
    },
    {
      "constant": true,
      "inputs": [],
      "name": "getAuctionCount",
      "outputs": [
        {
          "name": "",
          "type": "uint256"
        }
      ],
      "payable": false,
      "stateMutability": "view",
      "type": "function"
    },
    {
      "constant": true,
      "inputs": [
        {
          "name": "idx",
          "type": "uint256"
        }
      ],
      "name": "getStatus",
      "outputs": [
        {
          "name": "",
          "type": "uint256"
        }
      ],
      "payable": false,
      "stateMutability": "view",
      "type": "function"
    },
    {
      "constant": true,
      "inputs": [
        {
          "name": "addr",
          "type": "address"
        }
      ],
      "name": "getAuctionsCountForUser",
      "outputs": [
        {
          "name": "",
          "type": "uint256"
        }
      ],
      "payable": false,
      "stateMutability": "view",
      "type": "function"
    },
    {
      "constant": true,
      "inputs": [
        {
          "name": "addr",
          "type": "address"
        },
        {
          "name": "idx",
          "type": "uint256"
        }
      ],
      "name": "getAuctionIdForUserAndIdx",
      "outputs": [
        {
          "name": "",
          "type": "uint256"
        }
      ],
      "payable": false,
      "stateMutability": "view",
      "type": "function"
    },
    {
      "constant": true,
      "inputs": [
        {
          "name": "auctionId",
          "type": "uint256"
        }
      ],
      "name": "getBidCountForAuction",
      "outputs": [
        {
          "name": "",
          "type": "uint256"
        }
      ],
      "payable": false,
      "stateMutability": "view",
      "type": "function"
    },
    {
      "constant": true,
      "inputs": [
        {
          "name": "auctionId",
          "type": "uint256"
        },
        {
          "name": "idx",
          "type": "uint256"
        }
      ],
      "name": "getBidForAuctionByIdx",
      "outputs": [
        {
          "name": "bidder",
          "type": "address"
        },
        {
          "name": "amount",
          "type": "uint256"
        },
        {
          "name": "timestamp",
          "type": "uint256"
        }
      ],
      "payable": false,
      "stateMutability": "view",
      "type": "function"
    },
    {
      "constant": false,
      "inputs": [
        {
          "name": "auctionId",
          "type": "uint256"
        }
      ],
      "name": "placeBid",
      "outputs": [
        {
          "name": "success",
          "type": "bool"
        }
      ],
      "payable": true,
      "stateMutability": "payable",
      "type": "function"
    },
    {
      "constant": true,
      "inputs": [],
      "name": "getRefundValue",
      "outputs": [
        {
          "name": "",
          "type": "uint256"
        }
      ],
      "payable": false,
      "stateMutability": "view",
      "type": "function"
    },
    {
      "constant": false,
      "inputs": [],
      "name": "withdrawRefund",
      "outputs": [
        {
          "name": "",
          "type": "bool"
        }
      ],
      "payable": false,
      "stateMutability": "nonpayable",
      "type": "function"
    },
    {
      "constant": false,
      "inputs": [
        {
          "name": "auctionId",
          "type": "uint256"
        }
      ],
      "name": "endAuction",
      "outputs": [
        {
          "name": "success",
          "type": "bool"
        }
      ],
      "payable": false,
      "stateMutability": "nonpayable",
      "type": "function"
    }
  ],
  "bytecode": "0x608060405234801561001057600080fd5b506125f9806100206000396000f300608060405260043610610107576000357c0100000000000000000000000000000000000000000000000000000000900463ffffffff168063110f88741461010c5780631313c7391461013b57806324a12edf146101c0578063498f62e4146102215780634bc32ea2146103895780634cd08d03146103ca578063571a26a0146104bf57806358574dca1461069a57806359e54095146107b75780635c622a0e146107e25780636f959d131461082357806378bd7935146108b457806388c93e2214610a7a5780639979ef4514610adb5780639abb2c1614610b135780639ecbab2314610b6a578063b9a2de3a14610bcb578063c3c5a54714610c10578063c44e664014610c6b575b600080fd5b34801561011857600080fd5b50610121610c96565b604051808215151515815260200191505060405180910390f35b34801561014757600080fd5b506101706004803603810190808035906020019092919080359060200190929190505050610d6b565b604051808473ffffffffffffffffffffffffffffffffffffffff1673ffffffffffffffffffffffffffffffffffffffff168152602001838152602001828152602001935050505060405180910390f35b3480156101cc57600080fd5b5061020b600480360381019080803573ffffffffffffffffffffffffffffffffffffffff16906020019092919080359060200190929190505050610e09565b6040518082815260200191505060405180910390f35b34801561022d57600080fd5b50610236610e6a565b60405180806020018060200180602001848103845287818151815260200191508051906020019080838360005b8381101561027e578082015181840152602081019050610263565b50505050905090810190601f1680156102ab5780820380516001836020036101000a031916815260200191505b50848103835286818151815260200191508051906020019080838360005b838110156102e45780820151818401526020810190506102c9565b50505050905090810190601f1680156103115780820380516001836020036101000a031916815260200191505b50848103825285818151815260200191508051906020019080838360005b8381101561034a57808201518184015260208101905061032f565b50505050905090810190601f1680156103775780820380516001836020036101000a031916815260200191505b50965050505050505060405180910390f35b34801561039557600080fd5b506103b460048036038101908080359060200190929190505050611114565b6040518082815260200191505060405180910390f35b3480156103d657600080fd5b506104bd600480360381019080803590602001908201803590602001908080601f0160208091040260200160405190810160405280939291908181526020018383808284378201915050505050509192919290803590602001908201803590602001908080601f0160208091040260200160405190810160405280939291908181526020018383808284378201915050505050509192919290803590602001908201803590602001908080601f0160208091040260200160405190810160405280939291908181526020018383808284378201915050505050509192919290505050611146565b005b3480156104cb57600080fd5b506104ea6004803603810190808035906020019092919050505061139f565b604051808973ffffffffffffffffffffffffffffffffffffffff1673ffffffffffffffffffffffffffffffffffffffff16815260200180602001806020018060200188815260200187600281111561053e57fe5b60ff16815260200186815260200185815260200184810384528b818151815260200191508051906020019080838360005b8381101561058a57808201518184015260208101905061056f565b50505050905090810190601f1680156105b75780820380516001836020036101000a031916815260200191505b5084810383528a818151815260200191508051906020019080838360005b838110156105f05780820151818401526020810190506105d5565b50505050905090810190601f16801561061d5780820380516001836020036101000a031916815260200191505b50848103825289818151815260200191508051906020019080838360005b8381101561065657808201518184015260208101905061063b565b50505050905090810190601f1680156106835780820380516001836020036101000a031916815260200191505b509b50505050505050505050505060405180910390f35b3480156106a657600080fd5b506107a1600480360381019080803590602001908201803590602001908080601f0160208091040260200160405190810160405280939291908181526020018383808284378201915050505050509192919290803590602001908201803590602001908080601f0160208091040260200160405190810160405280939291908181526020018383808284378201915050505050509192919290803590602001908201803590602001908080601f016020809104026020016040519081016040528093929190818152602001838380828437820191505050505050919291929080359060200190929190803590602001909291905050506115eb565b6040518082815260200191505060405180910390f35b3480156107c357600080fd5b506107cc6118b4565b6040518082815260200191505060405180910390f35b3480156107ee57600080fd5b5061080d600480360381019080803590602001909291905050506118fb565b6040518082815260200191505060405180910390f35b34801561082f57600080fd5b50610864600480360381019080803573ffffffffffffffffffffffffffffffffffffffff169060200190929190505050611942565b604051808473ffffffffffffffffffffffffffffffffffffffff1673ffffffffffffffffffffffffffffffffffffffff168152602001838152602001828152602001935050505060405180910390f35b3480156108c057600080fd5b506108df6004803603810190808035906020019092919050505061198c565b604051808873ffffffffffffffffffffffffffffffffffffffff1673ffffffffffffffffffffffffffffffffffffffff16815260200180602001806020018060200187815260200186815260200185815260200184810384528a818151815260200191508051906020019080838360005b8381101561096b578082015181840152602081019050610950565b50505050905090810190601f1680156109985780820380516001836020036101000a031916815260200191505b50848103835289818151815260200191508051906020019080838360005b838110156109d15780820151818401526020810190506109b6565b50505050905090810190601f1680156109fe5780820380516001836020036101000a031916815260200191505b50848103825288818151815260200191508051906020019080838360005b83811015610a37578082015181840152602081019050610a1c565b50505050905090810190601f168015610a645780820380516001836020036101000a031916815260200191505b509a505050505050505050505060405180910390f35b348015610a8657600080fd5b50610ac5600480360381019080803573ffffffffffffffffffffffffffffffffffffffff16906020019092919080359060200190929190505050611c48565b6040518082815260200191505060405180910390f35b610af960048036038101908080359060200190929190505050611c78565b604051808215151515815260200191505060405180910390f35b348015610b1f57600080fd5b50610b54600480360381019080803573ffffffffffffffffffffffffffffffffffffffff169060200190929190505050611fdf565b6040518082815260200191505060405180910390f35b348015610b7657600080fd5b50610bb5600480360381019080803573ffffffffffffffffffffffffffffffffffffffff1690602001909291908035906020019092919050505061202b565b6040518082815260200191505060405180910390f35b348015610bd757600080fd5b50610bf66004803603810190808035906020019092919050505061205b565b604051808215151515815260200191505060405180910390f35b348015610c1c57600080fd5b50610c51600480360381019080803573ffffffffffffffffffffffffffffffffffffffff16906020019092919050505061226b565b604051808215151515815260200191505060405180910390f35b348015610c7757600080fd5b50610c806122c4565b6040518082815260200191505060405180910390f35b600080600460003373ffffffffffffffffffffffffffffffffffffffff1673ffffffffffffffffffffffffffffffffffffffff1681526020019081526020016000205490506000600460003373ffffffffffffffffffffffffffffffffffffffff1673ffffffffffffffffffffffffffffffffffffffff168152602001908152602001600020819055503373ffffffffffffffffffffffffffffffffffffffff166108fc829081150290604051600060405180830381858888f19350505050158015610d66573d6000803e3d6000fd5b505090565b60008060008060008087815481101515610d8157fe5b9060005260206000209060090201915060018260080180549050038611151515610daa57600080fd5b8160080186815481101515610dbb57fe5b906000526020600020906003020190508060000160009054906101000a900473ffffffffffffffffffffffffffffffffffffffff168160010154826002015494509450945050509250925092565b6000600260008473ffffffffffffffffffffffffffffffffffffffff1673ffffffffffffffffffffffffffffffffffffffff16815260200190815260200160002082815481101515610e5757fe5b9060005260206000200154905092915050565b6060806060600160003373ffffffffffffffffffffffffffffffffffffffff1673ffffffffffffffffffffffffffffffffffffffff168152602001908152602001600020600001600160003373ffffffffffffffffffffffffffffffffffffffff1673ffffffffffffffffffffffffffffffffffffffff168152602001908152602001600020600101600160003373ffffffffffffffffffffffffffffffffffffffff1673ffffffffffffffffffffffffffffffffffffffff168152602001908152602001600020600201828054600181600116156101000203166002900480601f016020809104026020016040519081016040528092919081815260200182805460018160011615610100020316600290048015610fca5780601f10610f9f57610100808354040283529160200191610fca565b820191906000526020600020905b815481529060010190602001808311610fad57829003601f168201915b50505050509250818054600181600116156101000203166002900480601f0160208091040260200160405190810160405280929190818152602001828054600181600116156101000203166002900480156110665780601f1061103b57610100808354040283529160200191611066565b820191906000526020600020905b81548152906001019060200180831161104957829003601f168201915b50505050509150808054600181600116156101000203166002900480601f0160208091040260200160405190810160405280929190818152602001828054600181600116156101000203166002900480156111025780601f106110d757610100808354040283529160200191611102565b820191906000526020600020905b8154815290600101906020018083116110e557829003601f168201915b50505050509050925092509250909192565b60008060008381548110151561112657fe5b906000526020600020906009020190508060080180549050915050919050565b60806040519081016040528084815260200183815260200182815260200160011515815250600160003373ffffffffffffffffffffffffffffffffffffffff1673ffffffffffffffffffffffffffffffffffffffff16815260200190815260200160002060008201518160000190805190602001906111c69291906122d0565b5060208201518160010190805190602001906111e39291906122d0565b5060408201518160020190805190602001906112009291906122d0565b5060608201518160030160006101000a81548160ff0219169083151502179055509050507fdc107de4c3c731b352a259c166ef69efecf42c27fd6931856cb10f96ade2dc0583838360405180806020018060200180602001848103845287818151815260200191508051906020019080838360005b83811015611290578082015181840152602081019050611275565b50505050905090810190601f1680156112bd5780820380516001836020036101000a031916815260200191505b50848103835286818151815260200191508051906020019080838360005b838110156112f65780820151818401526020810190506112db565b50505050905090810190601f1680156113235780820380516001836020036101000a031916815260200191505b50848103825285818151815260200191508051906020019080838360005b8381101561135c578082015181840152602081019050611341565b50505050905090810190601f1680156113895780820380516001836020036101000a031916815260200191505b50965050505050505060405180910390a1505050565b6000818154811015156113ae57fe5b90600052602060002090600902016000915090508060000160009054906101000a900473ffffffffffffffffffffffffffffffffffffffff1690806001018054600181600116156101000203166002900480601f0160208091040260200160405190810160405280929190818152602001828054600181600116156101000203166002900480156114805780601f1061145557610100808354040283529160200191611480565b820191906000526020600020905b81548152906001019060200180831161146357829003601f168201915b505050505090806002018054600181600116156101000203166002900480601f01602080910402602001604051908101604052809291908181526020018280546001816001161561010002031660029004801561151e5780601f106114f35761010080835404028352916020019161151e565b820191906000526020600020905b81548152906001019060200180831161150157829003601f168201915b505050505090806003018054600181600116156101000203166002900480601f0160208091040260200160405190810160405280929190818152602001828054600181600116156101000203166002900480156115bc5780601f10611591576101008083540402835291602001916115bc565b820191906000526020600020905b81548152906001019060200180831161159f57829003601f168201915b5050505050908060040154908060050160009054906101000a900460ff16908060060154908060070154905088565b600080600160003373ffffffffffffffffffffffffffffffffffffffff1673ffffffffffffffffffffffffffffffffffffffff16815260200190815260200160002060030160009054906101000a900460ff16151561164957600080fd5b6000805480919060010161165d9190612350565b915060008281548110151561166e57fe5b90600052602060002090600902019050338160000160006101000a81548173ffffffffffffffffffffffffffffffffffffffff021916908373ffffffffffffffffffffffffffffffffffffffff160217905550868160010190805190602001906116d9929190612382565b50858160020190805190602001906116f2929190612382565b508481600301908051906020019061170b929190612382565b5083816004018190555060018160050160006101000a81548160ff0219169083600281111561173657fe5b0217905550828160060181905550828160070181905550600260008260000160009054906101000a900473ffffffffffffffffffffffffffffffffffffffff1673ffffffffffffffffffffffffffffffffffffffff1673ffffffffffffffffffffffffffffffffffffffff1681526020019081526020016000208290806001815401808255809150509060018203906000526020600020016000909192909190915055507f71ec34891b539684f9d6a8e102eaab1a9aebc42e3c7a517ed2a3e911f269504482826001018360060154604051808481526020018060200183815260200182810382528481815460018160011615610100020316600290048152602001915080546001816001161561010002031660029004801561189a5780601f1061186f5761010080835404028352916020019161189a565b820191906000526020600020905b81548152906001019060200180831161187d57829003601f168201915b505094505050505060405180910390a15095945050505050565b6000600460003373ffffffffffffffffffffffffffffffffffffffff1673ffffffffffffffffffffffffffffffffffffffff16815260200190815260200160002054905090565b60008060008381548110151561190d57fe5b906000526020600020906009020190508060050160009054906101000a900460ff16600281111561193a57fe5b915050919050565b60056020528060005260406000206000915090508060000160009054906101000a900473ffffffffffffffffffffffffffffffffffffffff16908060010154908060020154905083565b600060608060606000806000806000898154811015156119a857fe5b906000526020600020906009020190503373ffffffffffffffffffffffffffffffffffffffff168160000160009054906101000a900473ffffffffffffffffffffffffffffffffffffffff1673ffffffffffffffffffffffffffffffffffffffff1614151515611a1757600080fd5b8060000160009054906101000a900473ffffffffffffffffffffffffffffffffffffffff16816001018260020183600301846004015485600601548660080180549050858054600181600116156101000203166002900480601f016020809104026020016040519081016040528092919081815260200182805460018160011615610100020316600290048015611aef5780601f10611ac457610100808354040283529160200191611aef565b820191906000526020600020905b815481529060010190602001808311611ad257829003601f168201915b50505050509550848054600181600116156101000203166002900480601f016020809104026020016040519081016040528092919081815260200182805460018160011615610100020316600290048015611b8b5780601f10611b6057610100808354040283529160200191611b8b565b820191906000526020600020905b815481529060010190602001808311611b6e57829003601f168201915b50505050509450838054600181600116156101000203166002900480601f016020809104026020016040519081016040528092919081815260200182805460018160011615610100020316600290048015611c275780601f10611bfc57610100808354040283529160200191611c27565b820191906000526020600020905b815481529060010190602001808311611c0a57829003601f168201915b50505050509350975097509750975097509750975050919395979092949650565b600360205281600052604060002081815481101515611c6357fe5b90600052602060002001600091509150505481565b600080600080600080600160003373ffffffffffffffffffffffffffffffffffffffff1673ffffffffffffffffffffffffffffffffffffffff16815260200190815260200160002060030160009054906101000a900460ff161515611cdc57600080fd5b600087815481101515611ceb57fe5b906000526020600020906009020194503373ffffffffffffffffffffffffffffffffffffffff168560000160009054906101000a900473ffffffffffffffffffffffffffffffffffffffff1673ffffffffffffffffffffffffffffffffffffffff1614151515611d5a57600080fd5b349350838560070154101515611d6f57600080fd5b846008018054809190600101611d859190612402565b92508460080183815481101515611d9857fe5b90600052602060002090600302019150338260000160006101000a81548173ffffffffffffffffffffffffffffffffffffffff021916908373ffffffffffffffffffffffffffffffffffffffff160217905550838260010181905550428260020181905550838560070181905550600360008360000160009054906101000a900473ffffffffffffffffffffffffffffffffffffffff1673ffffffffffffffffffffffffffffffffffffffff1673ffffffffffffffffffffffffffffffffffffffff1681526020019081526020016000208790806001815401808255809150509060018203906000526020600020016000909192909190915055506000831115611f36578460080160018403815481101515611eb057fe5b906000526020600020906003020190508060010154600460008360000160009054906101000a900473ffffffffffffffffffffffffffffffffffffffff1673ffffffffffffffffffffffffffffffffffffffff1673ffffffffffffffffffffffffffffffffffffffff168152602001908152602001600020600082825401925050819055505b7f0e54eff26401bf69b81b26f60bd85ef47f5d85275c1d268d84f68d6897431c47878360000160009054906101000a900473ffffffffffffffffffffffffffffffffffffffff168460010154604051808481526020018373ffffffffffffffffffffffffffffffffffffffff1673ffffffffffffffffffffffffffffffffffffffff168152602001828152602001935050505060405180910390a1600195505050505050919050565b6000600260008373ffffffffffffffffffffffffffffffffffffffff1673ffffffffffffffffffffffffffffffffffffffff168152602001908152602001600020805490509050919050565b60026020528160005260406000208181548110151561204657fe5b90600052602060002001600091509150505481565b6000806000808481548110151561206e57fe5b906000526020600020906009020191506001600281111561208b57fe5b8260050160009054906101000a900460ff1660028111156120a857fe5b1415156120b457600080fd5b6000826008018054905014156120f35760028260050160006101000a81548160ff021916908360028111156120e557fe5b021790555060019250612264565b81600801600183600801805490500381548110151561210e57fe5b90600052602060002090600302019050816006015482600701541115612239578160000160009054906101000a900473ffffffffffffffffffffffffffffffffffffffff1673ffffffffffffffffffffffffffffffffffffffff166108fc82600101549081150290604051600060405180830381858888f1935050505015801561219c573d6000803e3d6000fd5b507fab41e3f06042d2db81478807ab10a02315433d6f63128f9e25858e37e2ac7dfe848260000160009054906101000a900473ffffffffffffffffffffffffffffffffffffffff168460070154604051808481526020018373ffffffffffffffffffffffffffffffffffffffff1673ffffffffffffffffffffffffffffffffffffffff168152602001828152602001935050505060405180910390a15b60028260050160006101000a81548160ff0219169083600281111561225a57fe5b0217905550600192505b5050919050565b6000600160008373ffffffffffffffffffffffffffffffffffffffff1673ffffffffffffffffffffffffffffffffffffffff16815260200190815260200160002060030160009054906101000a900460ff169050919050565b60008080549050905090565b828054600181600116156101000203166002900490600052602060002090601f016020900481019282601f1061231157805160ff191683800117855561233f565b8280016001018555821561233f579182015b8281111561233e578251825591602001919060010190612323565b5b50905061234c9190612434565b5090565b81548183558181111561237d5760090281600902836000526020600020918201910161237c9190612459565b5b505050565b828054600181600116156101000203166002900490600052602060002090601f016020900481019282601f106123c357805160ff19168380011785556123f1565b828001600101855582156123f1579182015b828111156123f05782518255916020019190600101906123d5565b5b5090506123fe9190612434565b5090565b81548183558181111561242f5760030281600302836000526020600020918201910161242e919061250b565b5b505050565b61245691905b8082111561245257600081600090555060010161243a565b5090565b90565b61250891905b8082111561250457600080820160006101000a81549073ffffffffffffffffffffffffffffffffffffffff021916905560018201600061249f9190612561565b6002820160006124af9190612561565b6003820160006124bf9190612561565b60048201600090556005820160006101000a81549060ff0219169055600682016000905560078201600090556008820160006124fb91906125a9565b5060090161245f565b5090565b90565b61255e91905b8082111561255a57600080820160006101000a81549073ffffffffffffffffffffffffffffffffffffffff02191690556001820160009055600282016000905550600301612511565b5090565b90565b50805460018160011615610100020316600290046000825580601f1061258757506125a6565b601f0160209004906000526020600020908101906125a59190612434565b5b50565b50805460008255600302906000526020600020908101906125ca919061250b565b505600a165627a7a72305820ef98b7fec5afde53b3152fb4120eb62734fcc7f807d41c3882bc4ac52310ce330029",
  "source": "pragma solidity ^0.4.24;\n\ncontract AuctchainHouse {\n    \n    // Enum for auction status\n    enum AuctionStatus {Pending, Active, Inactive}\n    \n    // Struct for Bid metadata\n    struct Bid {\n        address bidder;\n        uint amount;\n        uint timestamp;\n    }\n    \n    // Struct for PersonInfo metadata\n    struct PersonInfo{\n        string  name;\n        string  email;\n        string  contact;\n        bool status;\n    }\n    \n    // Struct for Auction metadata\n    struct Auction {\n        // Location and ownership information of the item for sale\n        address seller;\n        \n        // Auction metadata\n        string title;\n        string description;\n        string link;\n        uint blockNumberOfDeadline;\n        AuctionStatus status;\n        \n        // Pricing\n        uint256 startingPrice;\n        uint256 currentBid;\n        \n        // Bid data\n        Bid[] bids;\n    }\n    \n    Auction[] public auctions; // All created auctions\n    \n    mapping(address => PersonInfo) registeredUser;\n    mapping(address => uint[]) public auctionsRunByUser; // Pointer to auctions index for auctions run\n    mapping(address => uint[]) public auctionsBidOnByUser; // Pointer to auctions index for auctions has bid on\n    mapping(address => uint) refunds;\n    mapping(address => Bid) public History;\n    \n    // All Events\n    event AccountRegistered(string name, string email, string contact);\n    event AuctionCreated(uint id, string title, uint256 startingPrice);\n    event BidPlaced(uint auctionId, address bidder, uint256 amount);\n    event AuctionEndedWithWinner(uint auctionId, address winningBidder, uint256 amount);\n    event AuctionEndedWithoutWinner(uint auctionId, uint256 topBid, uint256 reservePrice);\n    \n    /* User Register Section ----------------------------------- */\n    // Function for user register\n    function register(\n        string _name,\n        string _email,\n        string _contact) public {\n            \n        registeredUser[msg.sender] = PersonInfo(_name,_email,_contact,true);\n        emit AccountRegistered(_name, _email, _contact);\n    }\n    \n    // Function for check that user are registered\n    function isRegistered(address addr) public view returns (bool) {\n        return registeredUser[addr].status;\n    }\n\n    function getRegisteredData() public view returns (string, string, string){\n        return (\n            registeredUser[msg.sender].name,\n            registeredUser[msg.sender].email,\n            registeredUser[msg.sender].contact);\n    }\n    /* End User Register Section ------------------------------- */\n    \n    /* Auction Section ----------------------------------------- */\n    function createAuction(\n        string _title,\n        string _description,\n        string _link,\n        uint _deadline,\n        uint256 _startingPrice) public returns (uint auctionId) {\n        \n        require(registeredUser[msg.sender].status);\n    \n        auctionId = auctions.length++;\n        Auction storage a = auctions[auctionId];\n        \n        a.seller = msg.sender;\n        a.title = _title;\n        a.description = _description;\n        a.link = _link;\n        a.blockNumberOfDeadline = _deadline;\n        a.status = AuctionStatus.Active;\n        a.startingPrice = _startingPrice;\n        a.currentBid = _startingPrice;\n        \n        auctionsRunByUser[a.seller].push(auctionId);\n        \n        emit AuctionCreated(auctionId, a.title, a.startingPrice);\n    }\n    \n    function getAuction(uint idx) public view returns (\n        address,\n        string,\n        string,\n        string,\n        uint,\n        uint256,\n        uint) {\n        \n        Auction storage a = auctions[idx];\n        require(a.seller != msg.sender);\n        \n        return (\n            a.seller,\n            a.title,\n            a.description,\n            a.link,\n            a.blockNumberOfDeadline,\n            a.startingPrice,\n            a.bids.length);\n    }\n    \n    function getAuctionCount() public view returns (uint) {\n        return auctions.length;\n    }\n    \n    function getStatus(uint idx) public view returns (uint) {\n        Auction storage a = auctions[idx];\n        return uint(a.status);\n    }\n\n    function getAuctionsCountForUser(address addr) public view returns (uint) {\n        return auctionsRunByUser[addr].length;\n    }\n\n    function getAuctionIdForUserAndIdx(address addr, uint idx) public view returns (uint) {\n        return auctionsRunByUser[addr][idx];\n    }\n    \n    function getBidCountForAuction(uint auctionId) public view returns (uint) {\n        Auction storage a = auctions[auctionId];\n        return a.bids.length;\n    }\n    \n    function getBidForAuctionByIdx(uint auctionId, uint idx) public view \n        returns (address bidder, uint256 amount, uint timestamp) {\n        Auction storage a = auctions[auctionId];\n        require(idx <= a.bids.length - 1);\n\n        Bid storage b = a.bids[idx];\n        return (b.bidder, b.amount, b.timestamp);\n    }\n    \n    function placeBid(uint auctionId) public payable returns (bool success) {\n        require(registeredUser[msg.sender].status);\n        \n        Auction storage a = auctions[auctionId];\n        require(a.seller != msg.sender);\n        \n        uint256 amount = msg.value;\n        require(a.currentBid < amount);\n\n        uint bidIdx = a.bids.length++;\n        Bid storage b = a.bids[bidIdx];\n        b.bidder = msg.sender;\n        b.amount = amount;\n        b.timestamp = now;\n        a.currentBid = amount;\n\n        auctionsBidOnByUser[b.bidder].push(auctionId);\n\n        // Log refunds for the previous bidder\n        if (bidIdx > 0) {\n            Bid storage previousBid = a.bids[bidIdx - 1];\n            refunds[previousBid.bidder] += previousBid.amount;\n        }\n\n        emit BidPlaced(auctionId, b.bidder, b.amount);\n        return true;\n    }\n    \n    function getRefundValue() public view returns (uint) {\n        return refunds[msg.sender];\n    }\n\n    function withdrawRefund() public returns (bool) {\n        uint refund = refunds[msg.sender];\n        refunds[msg.sender] = 0;\n        msg.sender.transfer(refund);\n    }\n    \n    function endAuction(uint auctionId) public returns (bool success) {\n        Auction storage a = auctions[auctionId];\n\n        // Make sure auction hasn't already been ended\n        require(a.status == AuctionStatus.Active);\n        \n        // require(block.number >= a.blockNumberOfDeadline); // Still learn more about this\n\n        // No bids, make the auction inactive\n        if (a.bids.length == 0) {\n            a.status = AuctionStatus.Inactive;\n            return true;\n        }\n\n        Bid storage topBid = a.bids[a.bids.length - 1];\n\n        // If the auction hit its reserve price\n        if(a.currentBid > a.startingPrice) {\n            a.seller.transfer(topBid.amount);\n            emit AuctionEndedWithWinner(auctionId, topBid.bidder, a.currentBid);\n        }\n        \n        a.status = AuctionStatus.Inactive;\n        return true;\n        \n    }\n    /* End Auction Section ------------------------------------- */\n    \n    /* History Section ----------------------------------------- */\n    /* End History Section ------------------------------------- */\n}",
  "sourcePath": "D:\\_APP\\new_xampp\\htdocs\\Auctchain\\contracts\\Auction.sol",
  "compiler": {
    "name": "solc",
    "version": "0.4.24+commit.e67f0147.Emscripten.clang"
  },
  "schemaVersion": "2.0.1",
  "updatedAt": "2018-12-16T18:14:05.882Z"
}